{
  "_format": "hh-sol-artifact-1",
  "contractName": "MerkleAirdrop",
  "sourceName": "contracts/MerkleAirdrop.sol",
  "abi": [
    {
      "inputs": [
        {
          "internalType": "address",
          "name": "_token",
          "type": "address"
        },
        {
          "internalType": "bytes32",
          "name": "_merkleRoot",
          "type": "bytes32"
        }
      ],
      "stateMutability": "nonpayable",
      "type": "constructor"
    },
    {
      "inputs": [],
      "name": "AmountMustBeGreaterThanZero",
      "type": "error"
    },
    {
      "inputs": [
        {
          "internalType": "uint256",
          "name": "claimed",
          "type": "uint256"
        },
        {
          "internalType": "uint256",
          "name": "attempting",
          "type": "uint256"
        },
        {
          "internalType": "uint256",
          "name": "total",
          "type": "uint256"
        }
      ],
      "name": "ClaimExceedsAssignedTokens",
      "type": "error"
    },
    {
      "inputs": [],
      "name": "ContractPaused",
      "type": "error"
    },
    {
      "inputs": [],
      "name": "InvalidProof",
      "type": "error"
    },
    {
      "inputs": [
        {
          "internalType": "string",
          "name": "reason",
          "type": "string"
        }
      ],
      "name": "TransferFailed",
      "type": "error"
    },
    {
      "anonymous": false,
      "inputs": [
        {
          "indexed": true,
          "internalType": "address",
          "name": "claimant",
          "type": "address"
        },
        {
          "indexed": false,
          "internalType": "uint256",
          "name": "amount",
          "type": "uint256"
        }
      ],
      "name": "TokensClaimed",
      "type": "event"
    },
    {
      "inputs": [
        {
          "internalType": "uint256",
          "name": "totalAssigned",
          "type": "uint256"
        },
        {
          "internalType": "uint256",
          "name": "amountToMint",
          "type": "uint256"
        },
        {
          "internalType": "bytes32[]",
          "name": "proof",
          "type": "bytes32[]"
        }
      ],
      "name": "claimTokens",
      "outputs": [],
      "stateMutability": "nonpayable",
      "type": "function"
    },
    {
      "inputs": [
        {
          "internalType": "address",
          "name": "",
          "type": "address"
        }
      ],
      "name": "claimedAmounts",
      "outputs": [
        {
          "internalType": "uint256",
          "name": "",
          "type": "uint256"
        }
      ],
      "stateMutability": "view",
      "type": "function"
    },
    {
      "inputs": [],
      "name": "merkleRoot",
      "outputs": [
        {
          "internalType": "bytes32",
          "name": "",
          "type": "bytes32"
        }
      ],
      "stateMutability": "view",
      "type": "function"
    },
    {
      "inputs": [],
      "name": "token",
      "outputs": [
        {
          "internalType": "address",
          "name": "",
          "type": "address"
        }
      ],
      "stateMutability": "view",
      "type": "function"
    },
    {
      "inputs": [
        {
          "internalType": "bytes32[]",
          "name": "proof",
          "type": "bytes32[]"
        },
        {
          "internalType": "address",
          "name": "user",
          "type": "address"
        },
        {
          "internalType": "uint256",
          "name": "totalAssigned",
          "type": "uint256"
        }
      ],
      "name": "verify",
      "outputs": [
        {
          "internalType": "bool",
          "name": "",
          "type": "bool"
        }
      ],
      "stateMutability": "view",
      "type": "function"
    }
  ],
  "bytecode": "0x60c06040523480156200001157600080fd5b506040516200186838038062001868833981810160405281019062000037919062000120565b8173ffffffffffffffffffffffffffffffffffffffff1660808173ffffffffffffffffffffffffffffffffffffffff16815250508060a08181525050505062000167565b600080fd5b600073ffffffffffffffffffffffffffffffffffffffff82169050919050565b6000620000ad8262000080565b9050919050565b620000bf81620000a0565b8114620000cb57600080fd5b50565b600081519050620000df81620000b4565b92915050565b6000819050919050565b620000fa81620000e5565b81146200010657600080fd5b50565b6000815190506200011a81620000ef565b92915050565b600080604083850312156200013a57620001396200007b565b5b60006200014a85828601620000ce565b92505060206200015d8582860162000109565b9150509250929050565b60805160a0516116bf620001a96000396000818161016e015261019f015260008181610215015281816104ec015281816106d20152610a1001526116bf6000f3fe608060405234801561001057600080fd5b50600436106100575760003560e01c806304b38ce01461005c5780632eb4a7ab1461008c57806371417b32146100aa578063b69d1a08146100da578063fc0c546a146100f6575b600080fd5b61007660048036038101906100719190610fd2565b610114565b604051610083919061105c565b60405180910390f35b61009461019d565b6040516100a19190611086565b60405180910390f35b6100c460048036038101906100bf91906110a1565b6101c1565b6040516100d191906110dd565b60405180910390f35b6100f460048036038101906100ef91906110f8565b6101d9565b005b6100fe610a0e565b60405161010b9190611176565b60405180910390f35b600080838360405160200161012a929190611191565b6040516020818303038152906040528051906020012060405160200161015091906111db565b604051602081830303815290604052805190602001209050610193857f000000000000000000000000000000000000000000000000000000000000000083610a32565b9150509392505050565b7f000000000000000000000000000000000000000000000000000000000000000081565b60006020528060005260406000206000915090505481565b60008203610213576040517f5e85ae7300000000000000000000000000000000000000000000000000000000815260040160405180910390fd5b7f000000000000000000000000000000000000000000000000000000000000000073ffffffffffffffffffffffffffffffffffffffff16635c975abb6040518163ffffffff1660e01b8152600401602060405180830381865afa15801561027e573d6000803e3d6000fd5b505050506040513d601f19601f820116820180604052508101906102a29190611222565b156102d9576040517fab35696f00000000000000000000000000000000000000000000000000000000815260040160405180910390fd5b6102e4813385610114565b61031a576040517f09bde33900000000000000000000000000000000000000000000000000000000815260040160405180910390fd5b60008060003373ffffffffffffffffffffffffffffffffffffffff1673ffffffffffffffffffffffffffffffffffffffff16815260200190815260200160002054905061039c6040518060400160405280601081526020017f616c7265616479436c61696d65643a200000000000000000000000000000000081525082610a49565b6103db6040518060400160405280600f81526020017f746f74616c41737369676e65643a20000000000000000000000000000000000081525085610a49565b61041a6040518060400160405280600e81526020017f616d6f756e74546f4d696e743a2000000000000000000000000000000000000081525084610a49565b838382610427919061127e565b11156104ac5761046b6040518060400160405280600981526020017f526576657274696e670000000000000000000000000000000000000000000000815250610ae5565b8083856040517feae9665d0000000000000000000000000000000000000000000000000000000081526004016104a3939291906112b2565b60405180910390fd5b6104ea6040518060400160405280600d81526020017f41626f757420746f206d696e7400000000000000000000000000000000000000815250610ae5565b7f000000000000000000000000000000000000000000000000000000000000000073ffffffffffffffffffffffffffffffffffffffff166340c10f1930856040518363ffffffff1660e01b8152600401610545929190611191565b600060405180830381600087803b15801561055f57600080fd5b505af1925050508015610570575060015b6106ae5761057c6112f6565b806308c379a0036106365750610590611318565b8061059b5750610638565b6105da6040518060400160405280601b81526020017f4d696e74696e67206661696c6564207769746820726561736f6e3a000000000081525082610b7e565b806040516020016105eb9190611465565b6040516020818303038152906040526040517f12dfddb300000000000000000000000000000000000000000000000000000000815260040161062d91906114d1565b60405180910390fd5b505b3d8060008114610664576040519150601f19603f3d011682016040523d82523d6000602084013e610669565b606091505b506106a86040518060400160405280601d81526020017f4d696e74696e67206661696c65642077697468206e6f20726561736f6e000000815250610ae5565b506106d0565b6106cf60405180606001604052806027815260200161166360279139610ae5565b5b7f000000000000000000000000000000000000000000000000000000000000000073ffffffffffffffffffffffffffffffffffffffff1663a9059cbb33856040518363ffffffff1660e01b815260040161072b929190611191565b6020604051808303816000875af192505050801561076757506040513d601f19601f820116820180604052508101906107649190611222565b60015b6108a5576107736112f6565b806308c379a00361082d5750610787611318565b80610792575061082f565b6107d16040518060400160405280601b81526020017f4d696e74696e67206661696c6564207769746820726561736f6e3a000000000081525082610b7e565b806040516020016107e29190611465565b6040516020818303038152906040526040517f12dfddb300000000000000000000000000000000000000000000000000000000815260040161082491906114d1565b60405180910390fd5b505b3d806000811461085b576040519150601f19603f3d011682016040523d82523d6000602084013e610860565b606091505b5061089f6040518060400160405280601d81526020017f4d696e74696e67206661696c65642077697468206e6f20726561736f6e000000815250610ae5565b50610925565b80610923576108e86040518060400160405280601781526020017f5472616e736665722072657475726e65642066616c7365000000000000000000815250610ae5565b6040517f12dfddb300000000000000000000000000000000000000000000000000000000815260040161091a9061153f565b60405180910390fd5b505b6109656040518060400160405280601581526020017f5472616e7366657272656420746f6b656e7320746f00000000000000000000008152503385610c1a565b826000803373ffffffffffffffffffffffffffffffffffffffff1673ffffffffffffffffffffffffffffffffffffffff16815260200190815260200160002060008282546109b3919061127e565b925050819055503373ffffffffffffffffffffffffffffffffffffffff167f896e034966eaaf1adc54acc0f257056febbd300c9e47182cf761982cf1f5e43084604051610a0091906110dd565b60405180910390a250505050565b7f000000000000000000000000000000000000000000000000000000000000000081565b600082610a3f8584610cb9565b1490509392505050565b610ae18282604051602401610a5f92919061155f565b6040516020818303038152906040527fb60e72cc000000000000000000000000000000000000000000000000000000007bffffffffffffffffffffffffffffffffffffffffffffffffffffffff19166020820180517bffffffffffffffffffffffffffffffffffffffffffffffffffffffff8381831617835250505050610d09565b5050565b610b7b81604051602401610af991906114d1565b6040516020818303038152906040527f41304fac000000000000000000000000000000000000000000000000000000007bffffffffffffffffffffffffffffffffffffffffffffffffffffffff19166020820180517bffffffffffffffffffffffffffffffffffffffffffffffffffffffff8381831617835250505050610d09565b50565b610c168282604051602401610b9492919061158f565b6040516020818303038152906040527f4b5c4277000000000000000000000000000000000000000000000000000000007bffffffffffffffffffffffffffffffffffffffffffffffffffffffff19166020820180517bffffffffffffffffffffffffffffffffffffffffffffffffffffffff8381831617835250505050610d09565b5050565b610cb4838383604051602401610c32939291906115c6565b6040516020818303038152906040527f0d26b925000000000000000000000000000000000000000000000000000000007bffffffffffffffffffffffffffffffffffffffffffffffffffffffff19166020820180517bffffffffffffffffffffffffffffffffffffffffffffffffffffffff8381831617835250505050610d09565b505050565b60008082905060005b8451811015610cfe57610cef82868381518110610ce257610ce1611604565b5b6020026020010151610d23565b91508080600101915050610cc2565b508091505092915050565b610d2081610d18610d4e610d6f565b63ffffffff16565b50565b6000818310610d3b57610d368284610d7a565b610d46565b610d458383610d7a565b5b905092915050565b60006a636f6e736f6c652e6c6f679050600080835160208501845afa505050565b610d91819050919050565b600082600052816020526040600020905092915050565b610d99611633565b565b6000604051905090565b600080fd5b600080fd5b600080fd5b6000601f19601f8301169050919050565b7f4e487b7100000000000000000000000000000000000000000000000000000000600052604160045260246000fd5b610dfd82610db4565b810181811067ffffffffffffffff82111715610e1c57610e1b610dc5565b5b80604052505050565b6000610e2f610d9b565b9050610e3b8282610df4565b919050565b600067ffffffffffffffff821115610e5b57610e5a610dc5565b5b602082029050602081019050919050565b600080fd5b6000819050919050565b610e8481610e71565b8114610e8f57600080fd5b50565b600081359050610ea181610e7b565b92915050565b6000610eba610eb584610e40565b610e25565b90508083825260208201905060208402830185811115610edd57610edc610e6c565b5b835b81811015610f065780610ef28882610e92565b845260208401935050602081019050610edf565b5050509392505050565b600082601f830112610f2557610f24610daf565b5b8135610f35848260208601610ea7565b91505092915050565b600073ffffffffffffffffffffffffffffffffffffffff82169050919050565b6000610f6982610f3e565b9050919050565b610f7981610f5e565b8114610f8457600080fd5b50565b600081359050610f9681610f70565b92915050565b6000819050919050565b610faf81610f9c565b8114610fba57600080fd5b50565b600081359050610fcc81610fa6565b92915050565b600080600060608486031215610feb57610fea610da5565b5b600084013567ffffffffffffffff81111561100957611008610daa565b5b61101586828701610f10565b935050602061102686828701610f87565b925050604061103786828701610fbd565b9150509250925092565b60008115159050919050565b61105681611041565b82525050565b6000602082019050611071600083018461104d565b92915050565b61108081610e71565b82525050565b600060208201905061109b6000830184611077565b92915050565b6000602082840312156110b7576110b6610da5565b5b60006110c584828501610f87565b91505092915050565b6110d781610f9c565b82525050565b60006020820190506110f260008301846110ce565b92915050565b60008060006060848603121561111157611110610da5565b5b600061111f86828701610fbd565b935050602061113086828701610fbd565b925050604084013567ffffffffffffffff81111561115157611150610daa565b5b61115d86828701610f10565b9150509250925092565b61117081610f5e565b82525050565b600060208201905061118b6000830184611167565b92915050565b60006040820190506111a66000830185611167565b6111b360208301846110ce565b9392505050565b6000819050919050565b6111d56111d082610e71565b6111ba565b82525050565b60006111e782846111c4565b60208201915081905092915050565b6111ff81611041565b811461120a57600080fd5b50565b60008151905061121c816111f6565b92915050565b60006020828403121561123857611237610da5565b5b60006112468482850161120d565b91505092915050565b7f4e487b7100000000000000000000000000000000000000000000000000000000600052601160045260246000fd5b600061128982610f9c565b915061129483610f9c565b92508282019050808211156112ac576112ab61124f565b5b92915050565b60006060820190506112c760008301866110ce565b6112d460208301856110ce565b6112e160408301846110ce565b949350505050565b60008160e01c9050919050565b600060033d11156113155760046000803e6113126000516112e9565b90505b90565b600060443d106113a55761132a610d9b565b60043d036004823e80513d602482011167ffffffffffffffff821117156113525750506113a5565b808201805167ffffffffffffffff81111561137057505050506113a5565b80602083010160043d03850181111561138d5750505050506113a5565b61139c82602001850186610df4565b82955050505050505b90565b600081905092915050565b7f4d696e74696e67206661696c65643a2000000000000000000000000000000000600082015250565b60006113e96010836113a8565b91506113f4826113b3565b601082019050919050565b600081519050919050565b60005b8381101561142857808201518184015260208101905061140d565b60008484015250505050565b600061143f826113ff565b61144981856113a8565b935061145981856020860161140a565b80840191505092915050565b6000611470826113dc565b915061147c8284611434565b915081905092915050565b600082825260208201905092915050565b60006114a3826113ff565b6114ad8185611487565b93506114bd81856020860161140a565b6114c681610db4565b840191505092915050565b600060208201905081810360008301526114eb8184611498565b905092915050565b7f5472616e736665722072657475726e65642066616c7365000000000000000000600082015250565b6000611529601783611487565b9150611534826114f3565b602082019050919050565b600060208201905081810360008301526115588161151c565b9050919050565b600060408201905081810360008301526115798185611498565b905061158860208301846110ce565b9392505050565b600060408201905081810360008301526115a98185611498565b905081810360208301526115bd8184611498565b90509392505050565b600060608201905081810360008301526115e08186611498565b90506115ef6020830185611167565b6115fc60408301846110ce565b949350505050565b7f4e487b7100000000000000000000000000000000000000000000000000000000600052603260045260246000fd5b7f4e487b7100000000000000000000000000000000000000000000000000000000600052605160045260246000fdfe4d696e74656420746f6b656e7320746f204d65726b6c6541697264726f7020636f6e7472616374a264697066735822122074e87d388ee59481840759cde842504679c393a19b1a705c9c22e4450205de8764736f6c63430008180033",
  "linkReferences": {},
  "deployedLinkReferences": {}
}