{
  "_format": "hh-sol-artifact-1",
  "contractName": "MerkleAirdrop",
  "sourceName": "contracts/MerkleAirdrop.sol",
  "abi": [
    {
      "inputs": [
        {
          "internalType": "address",
          "name": "_token",
          "type": "address"
        },
        {
          "internalType": "bytes32",
          "name": "_merkleRoot",
          "type": "bytes32"
        }
      ],
      "stateMutability": "nonpayable",
      "type": "constructor"
    },
    {
      "anonymous": false,
      "inputs": [
        {
          "indexed": true,
          "internalType": "address",
          "name": "claimant",
          "type": "address"
        },
        {
          "indexed": false,
          "internalType": "uint256",
          "name": "amount",
          "type": "uint256"
        }
      ],
      "name": "TokensClaimed",
      "type": "event"
    },
    {
      "inputs": [
        {
          "internalType": "uint256",
          "name": "totalAssigned",
          "type": "uint256"
        },
        {
          "internalType": "uint256",
          "name": "amountToMint",
          "type": "uint256"
        },
        {
          "internalType": "bytes32[]",
          "name": "proof",
          "type": "bytes32[]"
        }
      ],
      "name": "claimTokens",
      "outputs": [],
      "stateMutability": "nonpayable",
      "type": "function"
    },
    {
      "inputs": [
        {
          "internalType": "address",
          "name": "",
          "type": "address"
        }
      ],
      "name": "claimedAmounts",
      "outputs": [
        {
          "internalType": "uint256",
          "name": "",
          "type": "uint256"
        }
      ],
      "stateMutability": "view",
      "type": "function"
    },
    {
      "inputs": [],
      "name": "merkleRoot",
      "outputs": [
        {
          "internalType": "bytes32",
          "name": "",
          "type": "bytes32"
        }
      ],
      "stateMutability": "view",
      "type": "function"
    },
    {
      "inputs": [],
      "name": "token",
      "outputs": [
        {
          "internalType": "address",
          "name": "",
          "type": "address"
        }
      ],
      "stateMutability": "view",
      "type": "function"
    },
    {
      "inputs": [
        {
          "internalType": "bytes32[]",
          "name": "proof",
          "type": "bytes32[]"
        },
        {
          "internalType": "address",
          "name": "user",
          "type": "address"
        },
        {
          "internalType": "uint256",
          "name": "totalAssigned",
          "type": "uint256"
        }
      ],
      "name": "verify",
      "outputs": [
        {
          "internalType": "bool",
          "name": "",
          "type": "bool"
        }
      ],
      "stateMutability": "view",
      "type": "function"
    }
  ],
  "bytecode": "0x60c06040523480156200001157600080fd5b5060405162000f8238038062000f82833981810160405281019062000037919062000120565b8173ffffffffffffffffffffffffffffffffffffffff1660808173ffffffffffffffffffffffffffffffffffffffff16815250508060a08181525050505062000167565b600080fd5b600073ffffffffffffffffffffffffffffffffffffffff82169050919050565b6000620000ad8262000080565b9050919050565b620000bf81620000a0565b8114620000cb57600080fd5b50565b600081519050620000df81620000b4565b92915050565b6000819050919050565b620000fa81620000e5565b81146200010657600080fd5b50565b6000815190506200011a81620000ef565b92915050565b600080604083850312156200013a57620001396200007b565b5b60006200014a85828601620000ce565b92505060206200015d8582860162000109565b9150509250929050565b60805160a051610de76200019b6000396000818161016e015261019f01526000818161034e01526104810152610de76000f3fe608060405234801561001057600080fd5b50600436106100575760003560e01c806304b38ce01461005c5780632eb4a7ab1461008c57806371417b32146100aa578063b69d1a08146100da578063fc0c546a146100f6575b600080fd5b61007660048036038101906100719190610872565b610114565b60405161008391906108fc565b60405180910390f35b61009461019d565b6040516100a19190610926565b60405180910390f35b6100c460048036038101906100bf9190610941565b6101c1565b6040516100d1919061097d565b60405180910390f35b6100f460048036038101906100ef9190610998565b6101d9565b005b6100fe61047f565b60405161010b9190610a16565b60405180910390f35b600080838360405160200161012a929190610a31565b604051602081830303815290604052805190602001206040516020016101509190610a7b565b604051602081830303815290604052805190602001209050610193857f0000000000000000000000000000000000000000000000000000000000000000836104a3565b9150509392505050565b7f000000000000000000000000000000000000000000000000000000000000000081565b60006020528060005260406000206000915090505481565b6000821161021c576040517f08c379a000000000000000000000000000000000000000000000000000000000815260040161021390610af3565b60405180910390fd5b610227813385610114565b610266576040517f08c379a000000000000000000000000000000000000000000000000000000000815260040161025d90610b5f565b60405180910390fd5b60008060003373ffffffffffffffffffffffffffffffffffffffff1673ffffffffffffffffffffffffffffffffffffffff1681526020019081526020016000205490508383826102b69190610bae565b11156102f7576040517f08c379a00000000000000000000000000000000000000000000000000000000081526004016102ee90610c2e565b60405180910390fd5b826000803373ffffffffffffffffffffffffffffffffffffffff1673ffffffffffffffffffffffffffffffffffffffff16815260200190815260200160002060008282546103459190610bae565b925050819055507f000000000000000000000000000000000000000000000000000000000000000073ffffffffffffffffffffffffffffffffffffffff1663a9059cbb33856040518363ffffffff1660e01b81526004016103a7929190610a31565b6020604051808303816000875af11580156103c6573d6000803e3d6000fd5b505050506040513d601f19601f820116820180604052508101906103ea9190610c7a565b5061042b6040518060400160405280601081526020017f4d696e74656420746f6b656e7320746f0000000000000000000000000000000081525033856104ba565b3373ffffffffffffffffffffffffffffffffffffffff167f896e034966eaaf1adc54acc0f257056febbd300c9e47182cf761982cf1f5e43084604051610471919061097d565b60405180910390a250505050565b7f000000000000000000000000000000000000000000000000000000000000000081565b6000826104b08584610559565b1490509392505050565b6105548383836040516024016104d293929190610d15565b6040516020818303038152906040527f0d26b925000000000000000000000000000000000000000000000000000000007bffffffffffffffffffffffffffffffffffffffffffffffffffffffff19166020820180517bffffffffffffffffffffffffffffffffffffffffffffffffffffffff83818316178352505050506105a9565b505050565b60008082905060005b845181101561059e5761058f8286838151811061058257610581610d53565b5b60200260200101516105c3565b91508080600101915050610562565b508091505092915050565b6105c0816105b86105ee61060f565b63ffffffff16565b50565b60008183106105db576105d6828461061a565b6105e6565b6105e5838361061a565b5b905092915050565b60006a636f6e736f6c652e6c6f679050600080835160208501845afa505050565b610631819050919050565b600082600052816020526040600020905092915050565b610639610d82565b565b6000604051905090565b600080fd5b600080fd5b600080fd5b6000601f19601f8301169050919050565b7f4e487b7100000000000000000000000000000000000000000000000000000000600052604160045260246000fd5b61069d82610654565b810181811067ffffffffffffffff821117156106bc576106bb610665565b5b80604052505050565b60006106cf61063b565b90506106db8282610694565b919050565b600067ffffffffffffffff8211156106fb576106fa610665565b5b602082029050602081019050919050565b600080fd5b6000819050919050565b61072481610711565b811461072f57600080fd5b50565b6000813590506107418161071b565b92915050565b600061075a610755846106e0565b6106c5565b9050808382526020820190506020840283018581111561077d5761077c61070c565b5b835b818110156107a657806107928882610732565b84526020840193505060208101905061077f565b5050509392505050565b600082601f8301126107c5576107c461064f565b5b81356107d5848260208601610747565b91505092915050565b600073ffffffffffffffffffffffffffffffffffffffff82169050919050565b6000610809826107de565b9050919050565b610819816107fe565b811461082457600080fd5b50565b60008135905061083681610810565b92915050565b6000819050919050565b61084f8161083c565b811461085a57600080fd5b50565b60008135905061086c81610846565b92915050565b60008060006060848603121561088b5761088a610645565b5b600084013567ffffffffffffffff8111156108a9576108a861064a565b5b6108b5868287016107b0565b93505060206108c686828701610827565b92505060406108d78682870161085d565b9150509250925092565b60008115159050919050565b6108f6816108e1565b82525050565b600060208201905061091160008301846108ed565b92915050565b61092081610711565b82525050565b600060208201905061093b6000830184610917565b92915050565b60006020828403121561095757610956610645565b5b600061096584828501610827565b91505092915050565b6109778161083c565b82525050565b6000602082019050610992600083018461096e565b92915050565b6000806000606084860312156109b1576109b0610645565b5b60006109bf8682870161085d565b93505060206109d08682870161085d565b925050604084013567ffffffffffffffff8111156109f1576109f061064a565b5b6109fd868287016107b0565b9150509250925092565b610a10816107fe565b82525050565b6000602082019050610a2b6000830184610a07565b92915050565b6000604082019050610a466000830185610a07565b610a53602083018461096e565b9392505050565b6000819050919050565b610a75610a7082610711565b610a5a565b82525050565b6000610a878284610a64565b60208201915081905092915050565b600082825260208201905092915050565b7f416d6f756e74206d7573742062652067726561746572207468616e207a65726f600082015250565b6000610add602083610a96565b9150610ae882610aa7565b602082019050919050565b60006020820190508181036000830152610b0c81610ad0565b9050919050565b7f496e76616c69642070726f6f6600000000000000000000000000000000000000600082015250565b6000610b49600d83610a96565b9150610b5482610b13565b602082019050919050565b60006020820190508181036000830152610b7881610b3c565b9050919050565b7f4e487b7100000000000000000000000000000000000000000000000000000000600052601160045260246000fd5b6000610bb98261083c565b9150610bc48361083c565b9250828201905080821115610bdc57610bdb610b7f565b5b92915050565b7f436c61696d20657863656564732061737369676e656420746f6b656e73000000600082015250565b6000610c18601d83610a96565b9150610c2382610be2565b602082019050919050565b60006020820190508181036000830152610c4781610c0b565b9050919050565b610c57816108e1565b8114610c6257600080fd5b50565b600081519050610c7481610c4e565b92915050565b600060208284031215610c9057610c8f610645565b5b6000610c9e84828501610c65565b91505092915050565b600081519050919050565b60005b83811015610cd0578082015181840152602081019050610cb5565b60008484015250505050565b6000610ce782610ca7565b610cf18185610a96565b9350610d01818560208601610cb2565b610d0a81610654565b840191505092915050565b60006060820190508181036000830152610d2f8186610cdc565b9050610d3e6020830185610a07565b610d4b604083018461096e565b949350505050565b7f4e487b7100000000000000000000000000000000000000000000000000000000600052603260045260246000fd5b7f4e487b7100000000000000000000000000000000000000000000000000000000600052605160045260246000fdfea26469706673582212206ba8ed39316e88e58e5cc04247952674aa7ee2f42fef16c8b4d18924d79a482764736f6c63430008180033",
  "linkReferences": {},
  "deployedLinkReferences": {}
}