{
  "_format": "hh-sol-artifact-1",
  "contractName": "Samoyedcoin",
  "sourceName": "contracts/SamoyedCoin.sol",
  "abi": [
    {
      "inputs": [
        {
          "internalType": "address",
          "name": "initialOwner",
          "type": "address"
        }
      ],
      "stateMutability": "nonpayable",
      "type": "constructor"
    },
    {
      "inputs": [],
      "name": "ECDSAInvalidSignature",
      "type": "error"
    },
    {
      "inputs": [
        {
          "internalType": "uint256",
          "name": "length",
          "type": "uint256"
        }
      ],
      "name": "ECDSAInvalidSignatureLength",
      "type": "error"
    },
    {
      "inputs": [
        {
          "internalType": "bytes32",
          "name": "s",
          "type": "bytes32"
        }
      ],
      "name": "ECDSAInvalidSignatureS",
      "type": "error"
    },
    {
      "inputs": [
        {
          "internalType": "address",
          "name": "spender",
          "type": "address"
        },
        {
          "internalType": "uint256",
          "name": "allowance",
          "type": "uint256"
        },
        {
          "internalType": "uint256",
          "name": "needed",
          "type": "uint256"
        }
      ],
      "name": "ERC20InsufficientAllowance",
      "type": "error"
    },
    {
      "inputs": [
        {
          "internalType": "address",
          "name": "sender",
          "type": "address"
        },
        {
          "internalType": "uint256",
          "name": "balance",
          "type": "uint256"
        },
        {
          "internalType": "uint256",
          "name": "needed",
          "type": "uint256"
        }
      ],
      "name": "ERC20InsufficientBalance",
      "type": "error"
    },
    {
      "inputs": [
        {
          "internalType": "address",
          "name": "approver",
          "type": "address"
        }
      ],
      "name": "ERC20InvalidApprover",
      "type": "error"
    },
    {
      "inputs": [
        {
          "internalType": "address",
          "name": "receiver",
          "type": "address"
        }
      ],
      "name": "ERC20InvalidReceiver",
      "type": "error"
    },
    {
      "inputs": [
        {
          "internalType": "address",
          "name": "sender",
          "type": "address"
        }
      ],
      "name": "ERC20InvalidSender",
      "type": "error"
    },
    {
      "inputs": [
        {
          "internalType": "address",
          "name": "spender",
          "type": "address"
        }
      ],
      "name": "ERC20InvalidSpender",
      "type": "error"
    },
    {
      "inputs": [
        {
          "internalType": "uint256",
          "name": "deadline",
          "type": "uint256"
        }
      ],
      "name": "ERC2612ExpiredSignature",
      "type": "error"
    },
    {
      "inputs": [
        {
          "internalType": "address",
          "name": "signer",
          "type": "address"
        },
        {
          "internalType": "address",
          "name": "owner",
          "type": "address"
        }
      ],
      "name": "ERC2612InvalidSigner",
      "type": "error"
    },
    {
      "inputs": [],
      "name": "EnforcedPause",
      "type": "error"
    },
    {
      "inputs": [],
      "name": "ExpectedPause",
      "type": "error"
    },
    {
      "inputs": [
        {
          "internalType": "address",
          "name": "account",
          "type": "address"
        },
        {
          "internalType": "uint256",
          "name": "currentNonce",
          "type": "uint256"
        }
      ],
      "name": "InvalidAccountNonce",
      "type": "error"
    },
    {
      "inputs": [],
      "name": "InvalidShortString",
      "type": "error"
    },
    {
      "inputs": [
        {
          "internalType": "address",
          "name": "owner",
          "type": "address"
        }
      ],
      "name": "OwnableInvalidOwner",
      "type": "error"
    },
    {
      "inputs": [
        {
          "internalType": "address",
          "name": "account",
          "type": "address"
        }
      ],
      "name": "OwnableUnauthorizedAccount",
      "type": "error"
    },
    {
      "inputs": [
        {
          "internalType": "string",
          "name": "str",
          "type": "string"
        }
      ],
      "name": "StringTooLong",
      "type": "error"
    },
    {
      "anonymous": false,
      "inputs": [
        {
          "indexed": true,
          "internalType": "address",
          "name": "owner",
          "type": "address"
        },
        {
          "indexed": true,
          "internalType": "address",
          "name": "spender",
          "type": "address"
        },
        {
          "indexed": false,
          "internalType": "uint256",
          "name": "value",
          "type": "uint256"
        }
      ],
      "name": "Approval",
      "type": "event"
    },
    {
      "anonymous": false,
      "inputs": [],
      "name": "EIP712DomainChanged",
      "type": "event"
    },
    {
      "anonymous": false,
      "inputs": [
        {
          "indexed": true,
          "internalType": "address",
          "name": "previousOwner",
          "type": "address"
        },
        {
          "indexed": true,
          "internalType": "address",
          "name": "newOwner",
          "type": "address"
        }
      ],
      "name": "OwnershipTransferred",
      "type": "event"
    },
    {
      "anonymous": false,
      "inputs": [
        {
          "indexed": false,
          "internalType": "address",
          "name": "account",
          "type": "address"
        }
      ],
      "name": "Paused",
      "type": "event"
    },
    {
      "anonymous": false,
      "inputs": [
        {
          "indexed": true,
          "internalType": "address",
          "name": "from",
          "type": "address"
        },
        {
          "indexed": true,
          "internalType": "address",
          "name": "to",
          "type": "address"
        },
        {
          "indexed": false,
          "internalType": "uint256",
          "name": "value",
          "type": "uint256"
        }
      ],
      "name": "Transfer",
      "type": "event"
    },
    {
      "anonymous": false,
      "inputs": [
        {
          "indexed": false,
          "internalType": "address",
          "name": "account",
          "type": "address"
        }
      ],
      "name": "Unpaused",
      "type": "event"
    },
    {
      "inputs": [],
      "name": "DOMAIN_SEPARATOR",
      "outputs": [
        {
          "internalType": "bytes32",
          "name": "",
          "type": "bytes32"
        }
      ],
      "stateMutability": "view",
      "type": "function"
    },
    {
      "inputs": [],
      "name": "airdropContract",
      "outputs": [
        {
          "internalType": "address",
          "name": "",
          "type": "address"
        }
      ],
      "stateMutability": "view",
      "type": "function"
    },
    {
      "inputs": [
        {
          "internalType": "address",
          "name": "owner",
          "type": "address"
        },
        {
          "internalType": "address",
          "name": "spender",
          "type": "address"
        }
      ],
      "name": "allowance",
      "outputs": [
        {
          "internalType": "uint256",
          "name": "",
          "type": "uint256"
        }
      ],
      "stateMutability": "view",
      "type": "function"
    },
    {
      "inputs": [
        {
          "internalType": "address",
          "name": "spender",
          "type": "address"
        },
        {
          "internalType": "uint256",
          "name": "value",
          "type": "uint256"
        }
      ],
      "name": "approve",
      "outputs": [
        {
          "internalType": "bool",
          "name": "",
          "type": "bool"
        }
      ],
      "stateMutability": "nonpayable",
      "type": "function"
    },
    {
      "inputs": [
        {
          "internalType": "address",
          "name": "account",
          "type": "address"
        }
      ],
      "name": "balanceOf",
      "outputs": [
        {
          "internalType": "uint256",
          "name": "",
          "type": "uint256"
        }
      ],
      "stateMutability": "view",
      "type": "function"
    },
    {
      "inputs": [],
      "name": "decimals",
      "outputs": [
        {
          "internalType": "uint8",
          "name": "",
          "type": "uint8"
        }
      ],
      "stateMutability": "view",
      "type": "function"
    },
    {
      "inputs": [],
      "name": "eip712Domain",
      "outputs": [
        {
          "internalType": "bytes1",
          "name": "fields",
          "type": "bytes1"
        },
        {
          "internalType": "string",
          "name": "name",
          "type": "string"
        },
        {
          "internalType": "string",
          "name": "version",
          "type": "string"
        },
        {
          "internalType": "uint256",
          "name": "chainId",
          "type": "uint256"
        },
        {
          "internalType": "address",
          "name": "verifyingContract",
          "type": "address"
        },
        {
          "internalType": "bytes32",
          "name": "salt",
          "type": "bytes32"
        },
        {
          "internalType": "uint256[]",
          "name": "extensions",
          "type": "uint256[]"
        }
      ],
      "stateMutability": "view",
      "type": "function"
    },
    {
      "inputs": [
        {
          "internalType": "address",
          "name": "to",
          "type": "address"
        },
        {
          "internalType": "uint256",
          "name": "amount",
          "type": "uint256"
        }
      ],
      "name": "mint",
      "outputs": [],
      "stateMutability": "nonpayable",
      "type": "function"
    },
    {
      "inputs": [],
      "name": "name",
      "outputs": [
        {
          "internalType": "string",
          "name": "",
          "type": "string"
        }
      ],
      "stateMutability": "view",
      "type": "function"
    },
    {
      "inputs": [
        {
          "internalType": "address",
          "name": "owner",
          "type": "address"
        }
      ],
      "name": "nonces",
      "outputs": [
        {
          "internalType": "uint256",
          "name": "",
          "type": "uint256"
        }
      ],
      "stateMutability": "view",
      "type": "function"
    },
    {
      "inputs": [],
      "name": "owner",
      "outputs": [
        {
          "internalType": "address",
          "name": "",
          "type": "address"
        }
      ],
      "stateMutability": "view",
      "type": "function"
    },
    {
      "inputs": [],
      "name": "pause",
      "outputs": [],
      "stateMutability": "nonpayable",
      "type": "function"
    },
    {
      "inputs": [],
      "name": "paused",
      "outputs": [
        {
          "internalType": "bool",
          "name": "",
          "type": "bool"
        }
      ],
      "stateMutability": "view",
      "type": "function"
    },
    {
      "inputs": [
        {
          "internalType": "address",
          "name": "owner",
          "type": "address"
        },
        {
          "internalType": "address",
          "name": "spender",
          "type": "address"
        },
        {
          "internalType": "uint256",
          "name": "value",
          "type": "uint256"
        },
        {
          "internalType": "uint256",
          "name": "deadline",
          "type": "uint256"
        },
        {
          "internalType": "uint8",
          "name": "v",
          "type": "uint8"
        },
        {
          "internalType": "bytes32",
          "name": "r",
          "type": "bytes32"
        },
        {
          "internalType": "bytes32",
          "name": "s",
          "type": "bytes32"
        }
      ],
      "name": "permit",
      "outputs": [],
      "stateMutability": "nonpayable",
      "type": "function"
    },
    {
      "inputs": [],
      "name": "renounceOwnership",
      "outputs": [],
      "stateMutability": "nonpayable",
      "type": "function"
    },
    {
      "inputs": [
        {
          "internalType": "address",
          "name": "_airdropContract",
          "type": "address"
        }
      ],
      "name": "setAirdropContract",
      "outputs": [],
      "stateMutability": "nonpayable",
      "type": "function"
    },
    {
      "inputs": [],
      "name": "symbol",
      "outputs": [
        {
          "internalType": "string",
          "name": "",
          "type": "string"
        }
      ],
      "stateMutability": "view",
      "type": "function"
    },
    {
      "inputs": [],
      "name": "totalSupply",
      "outputs": [
        {
          "internalType": "uint256",
          "name": "",
          "type": "uint256"
        }
      ],
      "stateMutability": "view",
      "type": "function"
    },
    {
      "inputs": [
        {
          "internalType": "address",
          "name": "to",
          "type": "address"
        },
        {
          "internalType": "uint256",
          "name": "value",
          "type": "uint256"
        }
      ],
      "name": "transfer",
      "outputs": [
        {
          "internalType": "bool",
          "name": "",
          "type": "bool"
        }
      ],
      "stateMutability": "nonpayable",
      "type": "function"
    },
    {
      "inputs": [
        {
          "internalType": "address",
          "name": "from",
          "type": "address"
        },
        {
          "internalType": "address",
          "name": "to",
          "type": "address"
        },
        {
          "internalType": "uint256",
          "name": "value",
          "type": "uint256"
        }
      ],
      "name": "transferFrom",
      "outputs": [
        {
          "internalType": "bool",
          "name": "",
          "type": "bool"
        }
      ],
      "stateMutability": "nonpayable",
      "type": "function"
    },
    {
      "inputs": [
        {
          "internalType": "address",
          "name": "newOwner",
          "type": "address"
        }
      ],
      "name": "transferOwnership",
      "outputs": [],
      "stateMutability": "nonpayable",
      "type": "function"
    },
    {
      "inputs": [],
      "name": "unpause",
      "outputs": [],
      "stateMutability": "nonpayable",
      "type": "function"
    }
  ],
  "bytecode": "0x6101606040523480156200001257600080fd5b5060405162002e3438038062002e348339818101604052810190620000389190620004ee565b6040518060400160405280600b81526020017f53616d6f796564636f696e000000000000000000000000000000000000000000815250806040518060400160405280600181526020017f3100000000000000000000000000000000000000000000000000000000000000815250836040518060400160405280600b81526020017f53616d6f796564636f696e0000000000000000000000000000000000000000008152506040518060400160405280600481526020017f53414d4f0000000000000000000000000000000000000000000000000000000081525081600390816200012391906200079a565b5080600490816200013591906200079a565b5050506000600560006101000a81548160ff021916908315150217905550600073ffffffffffffffffffffffffffffffffffffffff168173ffffffffffffffffffffffffffffffffffffffff1603620001c85760006040517f1e4fbdf7000000000000000000000000000000000000000000000000000000008152600401620001bf919062000892565b60405180910390fd5b620001d9816200029260201b60201c565b50620001f06006836200035860201b90919060201c565b61012081815250506200020e6007826200035860201b90919060201c565b6101408181525050818051906020012060e08181525050808051906020012061010081815250504660a081815250506200024d620003b060201b60201c565b608081815250503073ffffffffffffffffffffffffffffffffffffffff1660c08173ffffffffffffffffffffffffffffffffffffffff16815250505050505062000a8d565b6000600560019054906101000a900473ffffffffffffffffffffffffffffffffffffffff16905081600560016101000a81548173ffffffffffffffffffffffffffffffffffffffff021916908373ffffffffffffffffffffffffffffffffffffffff1602179055508173ffffffffffffffffffffffffffffffffffffffff168173ffffffffffffffffffffffffffffffffffffffff167f8be0079c531659141344cd1fd0a4f28419497f9722a3daafe3b4186f6b6457e060405160405180910390a35050565b60006020835110156200037e5762000376836200040d60201b60201c565b9050620003aa565b8262000390836200047a60201b60201c565b6000019081620003a191906200079a565b5060ff60001b90505b92915050565b60007f8b73c3c69bb8fe3d512ecc4cf759cc79239f7b179b0ffacaa9a75d522b39400f60e051610100514630604051602001620003f2959493929190620008db565b60405160208183030381529060405280519060200120905090565b600080829050601f815111156200045d57826040517f305a27a9000000000000000000000000000000000000000000000000000000008152600401620004549190620009c7565b60405180910390fd5b8051816200046b9062000a1d565b60001c1760001b915050919050565b6000819050919050565b600080fd5b600073ffffffffffffffffffffffffffffffffffffffff82169050919050565b6000620004b68262000489565b9050919050565b620004c881620004a9565b8114620004d457600080fd5b50565b600081519050620004e881620004bd565b92915050565b60006020828403121562000507576200050662000484565b5b60006200051784828501620004d7565b91505092915050565b600081519050919050565b7f4e487b7100000000000000000000000000000000000000000000000000000000600052604160045260246000fd5b7f4e487b7100000000000000000000000000000000000000000000000000000000600052602260045260246000fd5b60006002820490506001821680620005a257607f821691505b602082108103620005b857620005b76200055a565b5b50919050565b60008190508160005260206000209050919050565b60006020601f8301049050919050565b600082821b905092915050565b600060088302620006227fffffffffffffffffffffffffffffffffffffffffffffffffffffffffffffffff82620005e3565b6200062e8683620005e3565b95508019841693508086168417925050509392505050565b6000819050919050565b6000819050919050565b60006200067b620006756200066f8462000646565b62000650565b62000646565b9050919050565b6000819050919050565b62000697836200065a565b620006af620006a68262000682565b848454620005f0565b825550505050565b600090565b620006c6620006b7565b620006d38184846200068c565b505050565b5b81811015620006fb57620006ef600082620006bc565b600181019050620006d9565b5050565b601f8211156200074a576200071481620005be565b6200071f84620005d3565b810160208510156200072f578190505b620007476200073e85620005d3565b830182620006d8565b50505b505050565b600082821c905092915050565b60006200076f600019846008026200074f565b1980831691505092915050565b60006200078a83836200075c565b9150826002028217905092915050565b620007a58262000520565b67ffffffffffffffff811115620007c157620007c06200052b565b5b620007cd825462000589565b620007da828285620006ff565b600060209050601f831160018114620008125760008415620007fd578287015190505b6200080985826200077c565b86555062000879565b601f1984166200082286620005be565b60005b828110156200084c5784890151825560018201915060208501945060208101905062000825565b868310156200086c578489015162000868601f8916826200075c565b8355505b6001600288020188555050505b505050505050565b6200088c81620004a9565b82525050565b6000602082019050620008a9600083018462000881565b92915050565b6000819050919050565b620008c481620008af565b82525050565b620008d58162000646565b82525050565b600060a082019050620008f26000830188620008b9565b620009016020830187620008b9565b620009106040830186620008b9565b6200091f6060830185620008ca565b6200092e608083018462000881565b9695505050505050565b600082825260208201905092915050565b60005b83811015620009695780820151818401526020810190506200094c565b60008484015250505050565b6000601f19601f8301169050919050565b6000620009938262000520565b6200099f818562000938565b9350620009b181856020860162000949565b620009bc8162000975565b840191505092915050565b60006020820190508181036000830152620009e3818462000986565b905092915050565b600081519050919050565b6000819050602082019050919050565b600062000a148251620008af565b80915050919050565b600062000a2a82620009eb565b8262000a3684620009f6565b905062000a438162000a06565b9250602082101562000a865762000a817fffffffffffffffffffffffffffffffffffffffffffffffffffffffffffffffff83602003600802620005e3565b831692505b5050919050565b60805160a05160c05160e05161010051610120516101405161234c62000ae8600039600061105e015260006110230152600061135e0152600061133d01526000610c8901526000610cdf01526000610d08015261234c6000f3fe608060405234801561001057600080fd5b50600436106101425760003560e01c8063715018a6116100b857806395d89b411161007c57806395d89b4114610335578063a9059cbb14610353578063ab2be72614610383578063d505accf146103a1578063dd62ed3e146103bd578063f2fde38b146103ed57610142565b8063715018a6146102af5780637ecebe00146102b95780638456cb59146102e957806384b0196e146102f35780638da5cb5b1461031757610142565b80633644e5151161010a5780633644e515146102015780633f4ba83a1461021f57806340c10f19146102295780635c975abb146102455780636f0115381461026357806370a082311461027f57610142565b806306fdde0314610147578063095ea7b31461016557806318160ddd1461019557806323b872dd146101b3578063313ce567146101e3575b600080fd5b61014f610409565b60405161015c9190611b09565b60405180910390f35b61017f600480360381019061017a9190611bc4565b61049b565b60405161018c9190611c1f565b60405180910390f35b61019d6104be565b6040516101aa9190611c49565b60405180910390f35b6101cd60048036038101906101c89190611c64565b6104c8565b6040516101da9190611c1f565b60405180910390f35b6101eb6104f7565b6040516101f89190611cd3565b60405180910390f35b610209610500565b6040516102169190611d07565b60405180910390f35b61022761050f565b005b610243600480360381019061023e9190611bc4565b610521565b005b61024d6105fc565b60405161025a9190611c1f565b60405180910390f35b61027d60048036038101906102789190611d22565b610613565b005b61029960048036038101906102949190611d22565b61065f565b6040516102a69190611c49565b60405180910390f35b6102b76106a7565b005b6102d360048036038101906102ce9190611d22565b6106bb565b6040516102e09190611c49565b60405180910390f35b6102f16106cd565b005b6102fb6106df565b60405161030e9796959493929190611e57565b60405180910390f35b61031f610789565b60405161032c9190611edb565b60405180910390f35b61033d6107b3565b60405161034a9190611b09565b60405180910390f35b61036d60048036038101906103689190611bc4565b610845565b60405161037a9190611c1f565b60405180910390f35b61038b610868565b6040516103989190611edb565b60405180910390f35b6103bb60048036038101906103b69190611f4e565b61088e565b005b6103d760048036038101906103d29190611ff0565b6109d6565b6040516103e49190611c49565b60405180910390f35b61040760048036038101906104029190611d22565b610a5d565b005b6060600380546104189061205f565b80601f01602080910402602001604051908101604052809291908181526020018280546104449061205f565b80156104915780601f1061046657610100808354040283529160200191610491565b820191906000526020600020905b81548152906001019060200180831161047457829003601f168201915b5050505050905090565b6000806104a6610ae3565b90506104b3818585610aeb565b600191505092915050565b6000600254905090565b6000806104d3610ae3565b90506104e0858285610afd565b6104eb858585610b91565b60019150509392505050565b60006012905090565b600061050a610c85565b905090565b610517610d3c565b61051f610dc3565b565b610529610789565b73ffffffffffffffffffffffffffffffffffffffff163373ffffffffffffffffffffffffffffffffffffffff1614806105af5750600960009054906101000a900473ffffffffffffffffffffffffffffffffffffffff1673ffffffffffffffffffffffffffffffffffffffff163373ffffffffffffffffffffffffffffffffffffffff16145b6105ee576040517f08c379a00000000000000000000000000000000000000000000000000000000081526004016105e5906120dc565b60405180910390fd5b6105f88282610e26565b5050565b6000600560009054906101000a900460ff16905090565b61061b610d3c565b80600960006101000a81548173ffffffffffffffffffffffffffffffffffffffff021916908373ffffffffffffffffffffffffffffffffffffffff16021790555050565b60008060008373ffffffffffffffffffffffffffffffffffffffff1673ffffffffffffffffffffffffffffffffffffffff168152602001908152602001600020549050919050565b6106af610d3c565b6106b96000610ea8565b565b60006106c682610f6e565b9050919050565b6106d5610d3c565b6106dd610fb7565b565b6000606080600080600060606106f361101a565b6106fb611055565b46306000801b600067ffffffffffffffff81111561071c5761071b6120fc565b5b60405190808252806020026020018201604052801561074a5781602001602082028036833780820191505090505b507f0f00000000000000000000000000000000000000000000000000000000000000959493929190965096509650965096509650965090919293949596565b6000600560019054906101000a900473ffffffffffffffffffffffffffffffffffffffff16905090565b6060600480546107c29061205f565b80601f01602080910402602001604051908101604052809291908181526020018280546107ee9061205f565b801561083b5780601f106108105761010080835404028352916020019161083b565b820191906000526020600020905b81548152906001019060200180831161081e57829003601f168201915b5050505050905090565b600080610850610ae3565b905061085d818585610b91565b600191505092915050565b600960009054906101000a900473ffffffffffffffffffffffffffffffffffffffff1681565b834211156108d357836040517f627913020000000000000000000000000000000000000000000000000000000081526004016108ca9190611c49565b60405180910390fd5b60007f6e71edae12b1b97f4d1f60370fef10105fa2faae0126114a169c64845d6126c98888886109028c611090565b896040516020016109189695949392919061212b565b604051602081830303815290604052805190602001209050600061093b826110e7565b9050600061094b82878787611101565b90508973ffffffffffffffffffffffffffffffffffffffff168173ffffffffffffffffffffffffffffffffffffffff16146109bf57808a6040517f4b800e460000000000000000000000000000000000000000000000000000000081526004016109b692919061218c565b60405180910390fd5b6109ca8a8a8a610aeb565b50505050505050505050565b6000600160008473ffffffffffffffffffffffffffffffffffffffff1673ffffffffffffffffffffffffffffffffffffffff16815260200190815260200160002060008373ffffffffffffffffffffffffffffffffffffffff1673ffffffffffffffffffffffffffffffffffffffff16815260200190815260200160002054905092915050565b610a65610d3c565b600073ffffffffffffffffffffffffffffffffffffffff168173ffffffffffffffffffffffffffffffffffffffff1603610ad75760006040517f1e4fbdf7000000000000000000000000000000000000000000000000000000008152600401610ace9190611edb565b60405180910390fd5b610ae081610ea8565b50565b600033905090565b610af88383836001611131565b505050565b6000610b0984846109d6565b90507fffffffffffffffffffffffffffffffffffffffffffffffffffffffffffffffff8114610b8b5781811015610b7b578281836040517ffb8f41b2000000000000000000000000000000000000000000000000000000008152600401610b72939291906121b5565b60405180910390fd5b610b8a84848484036000611131565b5b50505050565b600073ffffffffffffffffffffffffffffffffffffffff168373ffffffffffffffffffffffffffffffffffffffff1603610c035760006040517f96c6fd1e000000000000000000000000000000000000000000000000000000008152600401610bfa9190611edb565b60405180910390fd5b600073ffffffffffffffffffffffffffffffffffffffff168273ffffffffffffffffffffffffffffffffffffffff1603610c755760006040517fec442f05000000000000000000000000000000000000000000000000000000008152600401610c6c9190611edb565b60405180910390fd5b610c80838383611308565b505050565b60007f000000000000000000000000000000000000000000000000000000000000000073ffffffffffffffffffffffffffffffffffffffff163073ffffffffffffffffffffffffffffffffffffffff16148015610d0157507f000000000000000000000000000000000000000000000000000000000000000046145b15610d2e577f00000000000000000000000000000000000000000000000000000000000000009050610d39565b610d36611318565b90505b90565b610d44610ae3565b73ffffffffffffffffffffffffffffffffffffffff16610d62610789565b73ffffffffffffffffffffffffffffffffffffffff1614610dc157610d85610ae3565b6040517f118cdaa7000000000000000000000000000000000000000000000000000000008152600401610db89190611edb565b60405180910390fd5b565b610dcb6113ae565b6000600560006101000a81548160ff0219169083151502179055507f5db9ee0a495bf2e6ff9c91a7834c1ba4fdd244a5e8aa4e537bd38aeae4b073aa610e0f610ae3565b604051610e1c9190611edb565b60405180910390a1565b600073ffffffffffffffffffffffffffffffffffffffff168273ffffffffffffffffffffffffffffffffffffffff1603610e985760006040517fec442f05000000000000000000000000000000000000000000000000000000008152600401610e8f9190611edb565b60405180910390fd5b610ea460008383611308565b5050565b6000600560019054906101000a900473ffffffffffffffffffffffffffffffffffffffff16905081600560016101000a81548173ffffffffffffffffffffffffffffffffffffffff021916908373ffffffffffffffffffffffffffffffffffffffff1602179055508173ffffffffffffffffffffffffffffffffffffffff168173ffffffffffffffffffffffffffffffffffffffff167f8be0079c531659141344cd1fd0a4f28419497f9722a3daafe3b4186f6b6457e060405160405180910390a35050565b6000600860008373ffffffffffffffffffffffffffffffffffffffff1673ffffffffffffffffffffffffffffffffffffffff168152602001908152602001600020549050919050565b610fbf6113ee565b6001600560006101000a81548160ff0219169083151502179055507f62e78cea01bee320cd4e420270b5ea74000d11b0c9f74754ebdbfc544b05a258611003610ae3565b6040516110109190611edb565b60405180910390a1565b606061105060067f000000000000000000000000000000000000000000000000000000000000000061142f90919063ffffffff16565b905090565b606061108b60077f000000000000000000000000000000000000000000000000000000000000000061142f90919063ffffffff16565b905090565b6000600860008373ffffffffffffffffffffffffffffffffffffffff1673ffffffffffffffffffffffffffffffffffffffff1681526020019081526020016000206000815480929190600101919050559050919050565b60006110fa6110f4610c85565b836114df565b9050919050565b60008060008061111388888888611520565b9250925092506111238282611614565b829350505050949350505050565b600073ffffffffffffffffffffffffffffffffffffffff168473ffffffffffffffffffffffffffffffffffffffff16036111a35760006040517fe602df0500000000000000000000000000000000000000000000000000000000815260040161119a9190611edb565b60405180910390fd5b600073ffffffffffffffffffffffffffffffffffffffff168373ffffffffffffffffffffffffffffffffffffffff16036112155760006040517f94280d6200000000000000000000000000000000000000000000000000000000815260040161120c9190611edb565b60405180910390fd5b81600160008673ffffffffffffffffffffffffffffffffffffffff1673ffffffffffffffffffffffffffffffffffffffff16815260200190815260200160002060008573ffffffffffffffffffffffffffffffffffffffff1673ffffffffffffffffffffffffffffffffffffffff168152602001908152602001600020819055508015611302578273ffffffffffffffffffffffffffffffffffffffff168473ffffffffffffffffffffffffffffffffffffffff167f8c5be1e5ebec7d5bd14f71427d1e84f3dd0314c0f7b2291e5b200ac8c7c3b925846040516112f99190611c49565b60405180910390a35b50505050565b611313838383611778565b505050565b60007f8b73c3c69bb8fe3d512ecc4cf759cc79239f7b179b0ffacaa9a75d522b39400f7f00000000000000000000000000000000000000000000000000000000000000007f000000000000000000000000000000000000000000000000000000000000000046306040516020016113939594939291906121ec565b60405160208183030381529060405280519060200120905090565b6113b66105fc565b6113ec576040517f8dfc202b00000000000000000000000000000000000000000000000000000000815260040160405180910390fd5b565b6113f66105fc565b1561142d576040517fd93c066500000000000000000000000000000000000000000000000000000000815260040160405180910390fd5b565b606060ff60001b831461144c5761144583611790565b90506114d9565b8180546114589061205f565b80601f01602080910402602001604051908101604052809291908181526020018280546114849061205f565b80156114d15780601f106114a6576101008083540402835291602001916114d1565b820191906000526020600020905b8154815290600101906020018083116114b457829003601f168201915b505050505090505b92915050565b60006040517f190100000000000000000000000000000000000000000000000000000000000081528360028201528260228201526042812091505092915050565b60008060007f7fffffffffffffffffffffffffffffff5d576e7357a4501ddfe92f46681b20a08460001c111561156057600060038592509250925061160a565b600060018888888860405160008152602001604052604051611585949392919061223f565b6020604051602081039080840390855afa1580156115a7573d6000803e3d6000fd5b505050602060405103519050600073ffffffffffffffffffffffffffffffffffffffff168173ffffffffffffffffffffffffffffffffffffffff16036115fb57600060016000801b9350935093505061160a565b8060008060001b935093509350505b9450945094915050565b6000600381111561162857611627612284565b5b82600381111561163b5761163a612284565b5b0315611774576001600381111561165557611654612284565b5b82600381111561166857611667612284565b5b0361169f576040517ff645eedf00000000000000000000000000000000000000000000000000000000815260040160405180910390fd5b600260038111156116b3576116b2612284565b5b8260038111156116c6576116c5612284565b5b0361170b578060001c6040517ffce698f70000000000000000000000000000000000000000000000000000000081526004016117029190611c49565b60405180910390fd5b60038081111561171e5761171d612284565b5b82600381111561173157611730612284565b5b0361177357806040517fd78bce0c00000000000000000000000000000000000000000000000000000000815260040161176a9190611d07565b60405180910390fd5b5b5050565b6117806113ee565b61178b838383611804565b505050565b6060600061179d83611a29565b90506000602067ffffffffffffffff8111156117bc576117bb6120fc565b5b6040519080825280601f01601f1916602001820160405280156117ee5781602001600182028036833780820191505090505b5090508181528360208201528092505050919050565b600073ffffffffffffffffffffffffffffffffffffffff168373ffffffffffffffffffffffffffffffffffffffff160361185657806002600082825461184a91906122e2565b92505081905550611929565b60008060008573ffffffffffffffffffffffffffffffffffffffff1673ffffffffffffffffffffffffffffffffffffffff168152602001908152602001600020549050818110156118e2578381836040517fe450d38c0000000000000000000000000000000000000000000000000000000081526004016118d9939291906121b5565b60405180910390fd5b8181036000808673ffffffffffffffffffffffffffffffffffffffff1673ffffffffffffffffffffffffffffffffffffffff16815260200190815260200160002081905550505b600073ffffffffffffffffffffffffffffffffffffffff168273ffffffffffffffffffffffffffffffffffffffff160361197257806002600082825403925050819055506119bf565b806000808473ffffffffffffffffffffffffffffffffffffffff1673ffffffffffffffffffffffffffffffffffffffff168152602001908152602001600020600082825401925050819055505b8173ffffffffffffffffffffffffffffffffffffffff168373ffffffffffffffffffffffffffffffffffffffff167fddf252ad1be2c89b69c2b068fc378daa952ba7f163c4a11628f55a4df523b3ef83604051611a1c9190611c49565b60405180910390a3505050565b60008060ff8360001c169050601f811115611a70576040517fb3512b0c00000000000000000000000000000000000000000000000000000000815260040160405180910390fd5b80915050919050565b600081519050919050565b600082825260208201905092915050565b60005b83811015611ab3578082015181840152602081019050611a98565b60008484015250505050565b6000601f19601f8301169050919050565b6000611adb82611a79565b611ae58185611a84565b9350611af5818560208601611a95565b611afe81611abf565b840191505092915050565b60006020820190508181036000830152611b238184611ad0565b905092915050565b600080fd5b600073ffffffffffffffffffffffffffffffffffffffff82169050919050565b6000611b5b82611b30565b9050919050565b611b6b81611b50565b8114611b7657600080fd5b50565b600081359050611b8881611b62565b92915050565b6000819050919050565b611ba181611b8e565b8114611bac57600080fd5b50565b600081359050611bbe81611b98565b92915050565b60008060408385031215611bdb57611bda611b2b565b5b6000611be985828601611b79565b9250506020611bfa85828601611baf565b9150509250929050565b60008115159050919050565b611c1981611c04565b82525050565b6000602082019050611c346000830184611c10565b92915050565b611c4381611b8e565b82525050565b6000602082019050611c5e6000830184611c3a565b92915050565b600080600060608486031215611c7d57611c7c611b2b565b5b6000611c8b86828701611b79565b9350506020611c9c86828701611b79565b9250506040611cad86828701611baf565b9150509250925092565b600060ff82169050919050565b611ccd81611cb7565b82525050565b6000602082019050611ce86000830184611cc4565b92915050565b6000819050919050565b611d0181611cee565b82525050565b6000602082019050611d1c6000830184611cf8565b92915050565b600060208284031215611d3857611d37611b2b565b5b6000611d4684828501611b79565b91505092915050565b60007fff0000000000000000000000000000000000000000000000000000000000000082169050919050565b611d8481611d4f565b82525050565b611d9381611b50565b82525050565b600081519050919050565b600082825260208201905092915050565b6000819050602082019050919050565b611dce81611b8e565b82525050565b6000611de08383611dc5565b60208301905092915050565b6000602082019050919050565b6000611e0482611d99565b611e0e8185611da4565b9350611e1983611db5565b8060005b83811015611e4a578151611e318882611dd4565b9750611e3c83611dec565b925050600181019050611e1d565b5085935050505092915050565b600060e082019050611e6c600083018a611d7b565b8181036020830152611e7e8189611ad0565b90508181036040830152611e928188611ad0565b9050611ea16060830187611c3a565b611eae6080830186611d8a565b611ebb60a0830185611cf8565b81810360c0830152611ecd8184611df9565b905098975050505050505050565b6000602082019050611ef06000830184611d8a565b92915050565b611eff81611cb7565b8114611f0a57600080fd5b50565b600081359050611f1c81611ef6565b92915050565b611f2b81611cee565b8114611f3657600080fd5b50565b600081359050611f4881611f22565b92915050565b600080600080600080600060e0888a031215611f6d57611f6c611b2b565b5b6000611f7b8a828b01611b79565b9750506020611f8c8a828b01611b79565b9650506040611f9d8a828b01611baf565b9550506060611fae8a828b01611baf565b9450506080611fbf8a828b01611f0d565b93505060a0611fd08a828b01611f39565b92505060c0611fe18a828b01611f39565b91505092959891949750929550565b6000806040838503121561200757612006611b2b565b5b600061201585828601611b79565b925050602061202685828601611b79565b9150509250929050565b7f4e487b7100000000000000000000000000000000000000000000000000000000600052602260045260246000fd5b6000600282049050600182168061207757607f821691505b60208210810361208a57612089612030565b5b50919050565b7f4e6f7420617574686f72697a656420746f206d696e7400000000000000000000600082015250565b60006120c6601683611a84565b91506120d182612090565b602082019050919050565b600060208201905081810360008301526120f5816120b9565b9050919050565b7f4e487b7100000000000000000000000000000000000000000000000000000000600052604160045260246000fd5b600060c0820190506121406000830189611cf8565b61214d6020830188611d8a565b61215a6040830187611d8a565b6121676060830186611c3a565b6121746080830185611c3a565b61218160a0830184611c3a565b979650505050505050565b60006040820190506121a16000830185611d8a565b6121ae6020830184611d8a565b9392505050565b60006060820190506121ca6000830186611d8a565b6121d76020830185611c3a565b6121e46040830184611c3a565b949350505050565b600060a0820190506122016000830188611cf8565b61220e6020830187611cf8565b61221b6040830186611cf8565b6122286060830185611c3a565b6122356080830184611d8a565b9695505050505050565b60006080820190506122546000830187611cf8565b6122616020830186611cc4565b61226e6040830185611cf8565b61227b6060830184611cf8565b95945050505050565b7f4e487b7100000000000000000000000000000000000000000000000000000000600052602160045260246000fd5b7f4e487b7100000000000000000000000000000000000000000000000000000000600052601160045260246000fd5b60006122ed82611b8e565b91506122f883611b8e565b92508282019050808211156123105761230f6122b3565b5b9291505056fea2646970667358221220c81be66c3c9f7f3d7a90e54832adc158ab9fbb283b3e4c07b960e950f6f1c55964736f6c63430008180033",
  "linkReferences": {},
  "deployedLinkReferences": {}
}