{
  "_format": "hh-sol-artifact-1",
  "contractName": "Samoyedcoin",
  "sourceName": "contracts/SamoyedCoin.sol",
  "abi": [
    {
      "inputs": [
        {
          "internalType": "address",
          "name": "initialOwner",
          "type": "address"
        }
      ],
      "stateMutability": "nonpayable",
      "type": "constructor"
    },
    {
      "inputs": [],
      "name": "ECDSAInvalidSignature",
      "type": "error"
    },
    {
      "inputs": [
        {
          "internalType": "uint256",
          "name": "length",
          "type": "uint256"
        }
      ],
      "name": "ECDSAInvalidSignatureLength",
      "type": "error"
    },
    {
      "inputs": [
        {
          "internalType": "bytes32",
          "name": "s",
          "type": "bytes32"
        }
      ],
      "name": "ECDSAInvalidSignatureS",
      "type": "error"
    },
    {
      "inputs": [
        {
          "internalType": "address",
          "name": "spender",
          "type": "address"
        },
        {
          "internalType": "uint256",
          "name": "allowance",
          "type": "uint256"
        },
        {
          "internalType": "uint256",
          "name": "needed",
          "type": "uint256"
        }
      ],
      "name": "ERC20InsufficientAllowance",
      "type": "error"
    },
    {
      "inputs": [
        {
          "internalType": "address",
          "name": "sender",
          "type": "address"
        },
        {
          "internalType": "uint256",
          "name": "balance",
          "type": "uint256"
        },
        {
          "internalType": "uint256",
          "name": "needed",
          "type": "uint256"
        }
      ],
      "name": "ERC20InsufficientBalance",
      "type": "error"
    },
    {
      "inputs": [
        {
          "internalType": "address",
          "name": "approver",
          "type": "address"
        }
      ],
      "name": "ERC20InvalidApprover",
      "type": "error"
    },
    {
      "inputs": [
        {
          "internalType": "address",
          "name": "receiver",
          "type": "address"
        }
      ],
      "name": "ERC20InvalidReceiver",
      "type": "error"
    },
    {
      "inputs": [
        {
          "internalType": "address",
          "name": "sender",
          "type": "address"
        }
      ],
      "name": "ERC20InvalidSender",
      "type": "error"
    },
    {
      "inputs": [
        {
          "internalType": "address",
          "name": "spender",
          "type": "address"
        }
      ],
      "name": "ERC20InvalidSpender",
      "type": "error"
    },
    {
      "inputs": [
        {
          "internalType": "uint256",
          "name": "deadline",
          "type": "uint256"
        }
      ],
      "name": "ERC2612ExpiredSignature",
      "type": "error"
    },
    {
      "inputs": [
        {
          "internalType": "address",
          "name": "signer",
          "type": "address"
        },
        {
          "internalType": "address",
          "name": "owner",
          "type": "address"
        }
      ],
      "name": "ERC2612InvalidSigner",
      "type": "error"
    },
    {
      "inputs": [],
      "name": "EnforcedPause",
      "type": "error"
    },
    {
      "inputs": [],
      "name": "ExpectedPause",
      "type": "error"
    },
    {
      "inputs": [
        {
          "internalType": "address",
          "name": "account",
          "type": "address"
        },
        {
          "internalType": "uint256",
          "name": "currentNonce",
          "type": "uint256"
        }
      ],
      "name": "InvalidAccountNonce",
      "type": "error"
    },
    {
      "inputs": [],
      "name": "InvalidShortString",
      "type": "error"
    },
    {
      "inputs": [
        {
          "internalType": "address",
          "name": "owner",
          "type": "address"
        }
      ],
      "name": "OwnableInvalidOwner",
      "type": "error"
    },
    {
      "inputs": [
        {
          "internalType": "address",
          "name": "account",
          "type": "address"
        }
      ],
      "name": "OwnableUnauthorizedAccount",
      "type": "error"
    },
    {
      "inputs": [
        {
          "internalType": "string",
          "name": "str",
          "type": "string"
        }
      ],
      "name": "StringTooLong",
      "type": "error"
    },
    {
      "anonymous": false,
      "inputs": [
        {
          "indexed": false,
          "internalType": "address",
          "name": "admin",
          "type": "address"
        },
        {
          "indexed": false,
          "internalType": "bool",
          "name": "isAdmin",
          "type": "bool"
        }
      ],
      "name": "AdminStatusChanged",
      "type": "event"
    },
    {
      "anonymous": false,
      "inputs": [
        {
          "indexed": true,
          "internalType": "address",
          "name": "owner",
          "type": "address"
        },
        {
          "indexed": true,
          "internalType": "address",
          "name": "spender",
          "type": "address"
        },
        {
          "indexed": false,
          "internalType": "uint256",
          "name": "value",
          "type": "uint256"
        }
      ],
      "name": "Approval",
      "type": "event"
    },
    {
      "anonymous": false,
      "inputs": [],
      "name": "EIP712DomainChanged",
      "type": "event"
    },
    {
      "anonymous": false,
      "inputs": [
        {
          "indexed": true,
          "internalType": "address",
          "name": "previousOwner",
          "type": "address"
        },
        {
          "indexed": true,
          "internalType": "address",
          "name": "newOwner",
          "type": "address"
        }
      ],
      "name": "OwnershipTransferred",
      "type": "event"
    },
    {
      "anonymous": false,
      "inputs": [
        {
          "indexed": false,
          "internalType": "address",
          "name": "account",
          "type": "address"
        }
      ],
      "name": "Paused",
      "type": "event"
    },
    {
      "anonymous": false,
      "inputs": [
        {
          "indexed": true,
          "internalType": "address",
          "name": "from",
          "type": "address"
        },
        {
          "indexed": true,
          "internalType": "address",
          "name": "to",
          "type": "address"
        },
        {
          "indexed": false,
          "internalType": "uint256",
          "name": "value",
          "type": "uint256"
        }
      ],
      "name": "Transfer",
      "type": "event"
    },
    {
      "anonymous": false,
      "inputs": [
        {
          "indexed": false,
          "internalType": "address",
          "name": "account",
          "type": "address"
        }
      ],
      "name": "Unpaused",
      "type": "event"
    },
    {
      "inputs": [],
      "name": "DOMAIN_SEPARATOR",
      "outputs": [
        {
          "internalType": "bytes32",
          "name": "",
          "type": "bytes32"
        }
      ],
      "stateMutability": "view",
      "type": "function"
    },
    {
      "inputs": [
        {
          "internalType": "address",
          "name": "",
          "type": "address"
        }
      ],
      "name": "admins",
      "outputs": [
        {
          "internalType": "bool",
          "name": "",
          "type": "bool"
        }
      ],
      "stateMutability": "view",
      "type": "function"
    },
    {
      "inputs": [],
      "name": "airdropContract",
      "outputs": [
        {
          "internalType": "address",
          "name": "",
          "type": "address"
        }
      ],
      "stateMutability": "view",
      "type": "function"
    },
    {
      "inputs": [
        {
          "internalType": "address",
          "name": "owner",
          "type": "address"
        },
        {
          "internalType": "address",
          "name": "spender",
          "type": "address"
        }
      ],
      "name": "allowance",
      "outputs": [
        {
          "internalType": "uint256",
          "name": "",
          "type": "uint256"
        }
      ],
      "stateMutability": "view",
      "type": "function"
    },
    {
      "inputs": [
        {
          "internalType": "address",
          "name": "spender",
          "type": "address"
        },
        {
          "internalType": "uint256",
          "name": "value",
          "type": "uint256"
        }
      ],
      "name": "approve",
      "outputs": [
        {
          "internalType": "bool",
          "name": "",
          "type": "bool"
        }
      ],
      "stateMutability": "nonpayable",
      "type": "function"
    },
    {
      "inputs": [
        {
          "internalType": "address",
          "name": "account",
          "type": "address"
        }
      ],
      "name": "balanceOf",
      "outputs": [
        {
          "internalType": "uint256",
          "name": "",
          "type": "uint256"
        }
      ],
      "stateMutability": "view",
      "type": "function"
    },
    {
      "inputs": [],
      "name": "decimals",
      "outputs": [
        {
          "internalType": "uint8",
          "name": "",
          "type": "uint8"
        }
      ],
      "stateMutability": "view",
      "type": "function"
    },
    {
      "inputs": [],
      "name": "eip712Domain",
      "outputs": [
        {
          "internalType": "bytes1",
          "name": "fields",
          "type": "bytes1"
        },
        {
          "internalType": "string",
          "name": "name",
          "type": "string"
        },
        {
          "internalType": "string",
          "name": "version",
          "type": "string"
        },
        {
          "internalType": "uint256",
          "name": "chainId",
          "type": "uint256"
        },
        {
          "internalType": "address",
          "name": "verifyingContract",
          "type": "address"
        },
        {
          "internalType": "bytes32",
          "name": "salt",
          "type": "bytes32"
        },
        {
          "internalType": "uint256[]",
          "name": "extensions",
          "type": "uint256[]"
        }
      ],
      "stateMutability": "view",
      "type": "function"
    },
    {
      "inputs": [
        {
          "internalType": "address",
          "name": "to",
          "type": "address"
        },
        {
          "internalType": "uint256",
          "name": "amount",
          "type": "uint256"
        }
      ],
      "name": "mint",
      "outputs": [],
      "stateMutability": "nonpayable",
      "type": "function"
    },
    {
      "inputs": [],
      "name": "name",
      "outputs": [
        {
          "internalType": "string",
          "name": "",
          "type": "string"
        }
      ],
      "stateMutability": "view",
      "type": "function"
    },
    {
      "inputs": [
        {
          "internalType": "address",
          "name": "owner",
          "type": "address"
        }
      ],
      "name": "nonces",
      "outputs": [
        {
          "internalType": "uint256",
          "name": "",
          "type": "uint256"
        }
      ],
      "stateMutability": "view",
      "type": "function"
    },
    {
      "inputs": [],
      "name": "owner",
      "outputs": [
        {
          "internalType": "address",
          "name": "",
          "type": "address"
        }
      ],
      "stateMutability": "view",
      "type": "function"
    },
    {
      "inputs": [],
      "name": "pause",
      "outputs": [],
      "stateMutability": "nonpayable",
      "type": "function"
    },
    {
      "inputs": [],
      "name": "paused",
      "outputs": [
        {
          "internalType": "bool",
          "name": "",
          "type": "bool"
        }
      ],
      "stateMutability": "view",
      "type": "function"
    },
    {
      "inputs": [
        {
          "internalType": "address",
          "name": "owner",
          "type": "address"
        },
        {
          "internalType": "address",
          "name": "spender",
          "type": "address"
        },
        {
          "internalType": "uint256",
          "name": "value",
          "type": "uint256"
        },
        {
          "internalType": "uint256",
          "name": "deadline",
          "type": "uint256"
        },
        {
          "internalType": "uint8",
          "name": "v",
          "type": "uint8"
        },
        {
          "internalType": "bytes32",
          "name": "r",
          "type": "bytes32"
        },
        {
          "internalType": "bytes32",
          "name": "s",
          "type": "bytes32"
        }
      ],
      "name": "permit",
      "outputs": [],
      "stateMutability": "nonpayable",
      "type": "function"
    },
    {
      "inputs": [],
      "name": "renounceOwnership",
      "outputs": [],
      "stateMutability": "nonpayable",
      "type": "function"
    },
    {
      "inputs": [
        {
          "internalType": "address",
          "name": "admin",
          "type": "address"
        },
        {
          "internalType": "bool",
          "name": "isAdmin",
          "type": "bool"
        }
      ],
      "name": "setAdmin",
      "outputs": [],
      "stateMutability": "nonpayable",
      "type": "function"
    },
    {
      "inputs": [
        {
          "internalType": "address",
          "name": "_airdropContract",
          "type": "address"
        }
      ],
      "name": "setAirdropContract",
      "outputs": [],
      "stateMutability": "nonpayable",
      "type": "function"
    },
    {
      "inputs": [],
      "name": "symbol",
      "outputs": [
        {
          "internalType": "string",
          "name": "",
          "type": "string"
        }
      ],
      "stateMutability": "view",
      "type": "function"
    },
    {
      "inputs": [],
      "name": "totalSupply",
      "outputs": [
        {
          "internalType": "uint256",
          "name": "",
          "type": "uint256"
        }
      ],
      "stateMutability": "view",
      "type": "function"
    },
    {
      "inputs": [
        {
          "internalType": "address",
          "name": "to",
          "type": "address"
        },
        {
          "internalType": "uint256",
          "name": "value",
          "type": "uint256"
        }
      ],
      "name": "transfer",
      "outputs": [
        {
          "internalType": "bool",
          "name": "",
          "type": "bool"
        }
      ],
      "stateMutability": "nonpayable",
      "type": "function"
    },
    {
      "inputs": [
        {
          "internalType": "address",
          "name": "from",
          "type": "address"
        },
        {
          "internalType": "address",
          "name": "to",
          "type": "address"
        },
        {
          "internalType": "uint256",
          "name": "value",
          "type": "uint256"
        }
      ],
      "name": "transferFrom",
      "outputs": [
        {
          "internalType": "bool",
          "name": "",
          "type": "bool"
        }
      ],
      "stateMutability": "nonpayable",
      "type": "function"
    },
    {
      "inputs": [
        {
          "internalType": "address",
          "name": "newOwner",
          "type": "address"
        }
      ],
      "name": "transferOwnership",
      "outputs": [],
      "stateMutability": "nonpayable",
      "type": "function"
    },
    {
      "inputs": [],
      "name": "unpause",
      "outputs": [],
      "stateMutability": "nonpayable",
      "type": "function"
    }
  ],
  "bytecode": "0x6101606040523480156200001257600080fd5b506040516200321f3803806200321f833981810160405281019062000038919062000546565b6040518060400160405280600b81526020017f53616d6f796564636f696e000000000000000000000000000000000000000000815250806040518060400160405280600181526020017f3100000000000000000000000000000000000000000000000000000000000000815250836040518060400160405280600b81526020017f53616d6f796564636f696e0000000000000000000000000000000000000000008152506040518060400160405280600481526020017f53414d4f000000000000000000000000000000000000000000000000000000008152508160039081620001239190620007f2565b508060049081620001359190620007f2565b5050506000600560006101000a81548160ff021916908315150217905550600073ffffffffffffffffffffffffffffffffffffffff168173ffffffffffffffffffffffffffffffffffffffff1603620001c85760006040517f1e4fbdf7000000000000000000000000000000000000000000000000000000008152600401620001bf9190620008ea565b60405180910390fd5b620001d981620002ea60201b60201c565b50620001f0600683620003b060201b90919060201c565b61012081815250506200020e600782620003b060201b90919060201c565b6101408181525050818051906020012060e08181525050808051906020012061010081815250504660a081815250506200024d6200040860201b60201c565b608081815250503073ffffffffffffffffffffffffffffffffffffffff1660c08173ffffffffffffffffffffffffffffffffffffffff16815250505050506001600a60008373ffffffffffffffffffffffffffffffffffffffff1673ffffffffffffffffffffffffffffffffffffffff16815260200190815260200160002060006101000a81548160ff0219169083151502179055505062000ae5565b6000600560019054906101000a900473ffffffffffffffffffffffffffffffffffffffff16905081600560016101000a81548173ffffffffffffffffffffffffffffffffffffffff021916908373ffffffffffffffffffffffffffffffffffffffff1602179055508173ffffffffffffffffffffffffffffffffffffffff168173ffffffffffffffffffffffffffffffffffffffff167f8be0079c531659141344cd1fd0a4f28419497f9722a3daafe3b4186f6b6457e060405160405180910390a35050565b6000602083511015620003d657620003ce836200046560201b60201c565b905062000402565b82620003e883620004d260201b60201c565b6000019081620003f99190620007f2565b5060ff60001b90505b92915050565b60007f8b73c3c69bb8fe3d512ecc4cf759cc79239f7b179b0ffacaa9a75d522b39400f60e0516101005146306040516020016200044a95949392919062000933565b60405160208183030381529060405280519060200120905090565b600080829050601f81511115620004b557826040517f305a27a9000000000000000000000000000000000000000000000000000000008152600401620004ac919062000a1f565b60405180910390fd5b805181620004c39062000a75565b60001c1760001b915050919050565b6000819050919050565b600080fd5b600073ffffffffffffffffffffffffffffffffffffffff82169050919050565b60006200050e82620004e1565b9050919050565b620005208162000501565b81146200052c57600080fd5b50565b600081519050620005408162000515565b92915050565b6000602082840312156200055f576200055e620004dc565b5b60006200056f848285016200052f565b91505092915050565b600081519050919050565b7f4e487b7100000000000000000000000000000000000000000000000000000000600052604160045260246000fd5b7f4e487b7100000000000000000000000000000000000000000000000000000000600052602260045260246000fd5b60006002820490506001821680620005fa57607f821691505b60208210810362000610576200060f620005b2565b5b50919050565b60008190508160005260206000209050919050565b60006020601f8301049050919050565b600082821b905092915050565b6000600883026200067a7fffffffffffffffffffffffffffffffffffffffffffffffffffffffffffffffff826200063b565b6200068686836200063b565b95508019841693508086168417925050509392505050565b6000819050919050565b6000819050919050565b6000620006d3620006cd620006c7846200069e565b620006a8565b6200069e565b9050919050565b6000819050919050565b620006ef83620006b2565b62000707620006fe82620006da565b84845462000648565b825550505050565b600090565b6200071e6200070f565b6200072b818484620006e4565b505050565b5b8181101562000753576200074760008262000714565b60018101905062000731565b5050565b601f821115620007a2576200076c8162000616565b62000777846200062b565b8101602085101562000787578190505b6200079f62000796856200062b565b83018262000730565b50505b505050565b600082821c905092915050565b6000620007c760001984600802620007a7565b1980831691505092915050565b6000620007e28383620007b4565b9150826002028217905092915050565b620007fd8262000578565b67ffffffffffffffff81111562000819576200081862000583565b5b620008258254620005e1565b6200083282828562000757565b600060209050601f8311600181146200086a576000841562000855578287015190505b620008618582620007d4565b865550620008d1565b601f1984166200087a8662000616565b60005b82811015620008a4578489015182556001820191506020850194506020810190506200087d565b86831015620008c45784890151620008c0601f891682620007b4565b8355505b6001600288020188555050505b505050505050565b620008e48162000501565b82525050565b6000602082019050620009016000830184620008d9565b92915050565b6000819050919050565b6200091c8162000907565b82525050565b6200092d816200069e565b82525050565b600060a0820190506200094a600083018862000911565b62000959602083018762000911565b62000968604083018662000911565b62000977606083018562000922565b620009866080830184620008d9565b9695505050505050565b600082825260208201905092915050565b60005b83811015620009c1578082015181840152602081019050620009a4565b60008484015250505050565b6000601f19601f8301169050919050565b6000620009eb8262000578565b620009f7818562000990565b935062000a09818560208601620009a1565b62000a1481620009cd565b840191505092915050565b6000602082019050818103600083015262000a3b8184620009de565b905092915050565b600081519050919050565b6000819050602082019050919050565b600062000a6c825162000907565b80915050919050565b600062000a828262000a43565b8262000a8e8462000a4e565b905062000a9b8162000a5e565b9250602082101562000ade5762000ad97fffffffffffffffffffffffffffffffffffffffffffffffffffffffffffffffff836020036008026200063b565b831692505b5050919050565b60805160a05160c05160e0516101005161012051610140516126df62000b40600039600061128401526000611249015260006115840152600061156301526000610eaf01526000610f0501526000610f2e01526126df6000f3fe608060405234801561001057600080fd5b50600436106101585760003560e01c806370a08231116100c357806395d89b411161007c57806395d89b4114610397578063a9059cbb146103b5578063ab2be726146103e5578063d505accf14610403578063dd62ed3e1461041f578063f2fde38b1461044f57610158565b806370a08231146102e1578063715018a6146103115780637ecebe001461031b5780638456cb591461034b57806384b0196e146103555780638da5cb5b1461037957610158565b80633f4ba83a116101155780633f4ba83a1461023557806340c10f191461023f578063429b62e51461025b5780634b0bddd21461028b5780635c975abb146102a75780636f011538146102c557610158565b806306fdde031461015d578063095ea7b31461017b57806318160ddd146101ab57806323b872dd146101c9578063313ce567146101f95780633644e51514610217575b600080fd5b61016561046b565b6040516101729190611d2f565b60405180910390f35b61019560048036038101906101909190611dea565b6104fd565b6040516101a29190611e45565b60405180910390f35b6101b3610520565b6040516101c09190611e6f565b60405180910390f35b6101e360048036038101906101de9190611e8a565b61052a565b6040516101f09190611e45565b60405180910390f35b610201610559565b60405161020e9190611ef9565b60405180910390f35b61021f610562565b60405161022c9190611f2d565b60405180910390f35b61023d610571565b005b61025960048036038101906102549190611dea565b610607565b005b61027560048036038101906102709190611f48565b6106e2565b6040516102829190611e45565b60405180910390f35b6102a560048036038101906102a09190611fa1565b610702565b005b6102af61079e565b6040516102bc9190611e45565b60405180910390f35b6102df60048036038101906102da9190611f48565b6107b5565b005b6102fb60048036038101906102f69190611f48565b610801565b6040516103089190611e6f565b60405180910390f35b610319610849565b005b61033560048036038101906103309190611f48565b61085d565b6040516103429190611e6f565b60405180910390f35b61035361086f565b005b61035d610905565b60405161037097969594939291906120e9565b60405180910390f35b6103816109af565b60405161038e919061216d565b60405180910390f35b61039f6109d9565b6040516103ac9190611d2f565b60405180910390f35b6103cf60048036038101906103ca9190611dea565b610a6b565b6040516103dc9190611e45565b60405180910390f35b6103ed610a8e565b6040516103fa919061216d565b60405180910390f35b61041d600480360381019061041891906121e0565b610ab4565b005b61043960048036038101906104349190612282565b610bfc565b6040516104469190611e6f565b60405180910390f35b61046960048036038101906104649190611f48565b610c83565b005b60606003805461047a906122f1565b80601f01602080910402602001604051908101604052809291908181526020018280546104a6906122f1565b80156104f35780601f106104c8576101008083540402835291602001916104f3565b820191906000526020600020905b8154815290600101906020018083116104d657829003601f168201915b5050505050905090565b600080610508610d09565b9050610515818585610d11565b600191505092915050565b6000600254905090565b600080610535610d09565b9050610542858285610d23565b61054d858585610db7565b60019150509392505050565b60006012905090565b600061056c610eab565b905090565b600a60003373ffffffffffffffffffffffffffffffffffffffff1673ffffffffffffffffffffffffffffffffffffffff16815260200190815260200160002060009054906101000a900460ff166105fd576040517f08c379a00000000000000000000000000000000000000000000000000000000081526004016105f49061236e565b60405180910390fd5b610605610f62565b565b61060f6109af565b73ffffffffffffffffffffffffffffffffffffffff163373ffffffffffffffffffffffffffffffffffffffff1614806106955750600960009054906101000a900473ffffffffffffffffffffffffffffffffffffffff1673ffffffffffffffffffffffffffffffffffffffff163373ffffffffffffffffffffffffffffffffffffffff16145b6106d4576040517f08c379a00000000000000000000000000000000000000000000000000000000081526004016106cb906123da565b60405180910390fd5b6106de8282610fc5565b5050565b600a6020528060005260406000206000915054906101000a900460ff1681565b61070a611047565b80600a60008473ffffffffffffffffffffffffffffffffffffffff1673ffffffffffffffffffffffffffffffffffffffff16815260200190815260200160002060006101000a81548160ff0219169083151502179055507fc63c72d6995119c079ef24c02679d49838905c8e81df9e632011b914e6f592f682826040516107929291906123fa565b60405180910390a15050565b6000600560009054906101000a900460ff16905090565b6107bd611047565b80600960006101000a81548173ffffffffffffffffffffffffffffffffffffffff021916908373ffffffffffffffffffffffffffffffffffffffff16021790555050565b60008060008373ffffffffffffffffffffffffffffffffffffffff1673ffffffffffffffffffffffffffffffffffffffff168152602001908152602001600020549050919050565b610851611047565b61085b60006110ce565b565b600061086882611194565b9050919050565b600a60003373ffffffffffffffffffffffffffffffffffffffff1673ffffffffffffffffffffffffffffffffffffffff16815260200190815260200160002060009054906101000a900460ff166108fb576040517f08c379a00000000000000000000000000000000000000000000000000000000081526004016108f29061246f565b60405180910390fd5b6109036111dd565b565b600060608060008060006060610919611240565b61092161127b565b46306000801b600067ffffffffffffffff8111156109425761094161248f565b5b6040519080825280602002602001820160405280156109705781602001602082028036833780820191505090505b507f0f00000000000000000000000000000000000000000000000000000000000000959493929190965096509650965096509650965090919293949596565b6000600560019054906101000a900473ffffffffffffffffffffffffffffffffffffffff16905090565b6060600480546109e8906122f1565b80601f0160208091040260200160405190810160405280929190818152602001828054610a14906122f1565b8015610a615780601f10610a3657610100808354040283529160200191610a61565b820191906000526020600020905b815481529060010190602001808311610a4457829003601f168201915b5050505050905090565b600080610a76610d09565b9050610a83818585610db7565b600191505092915050565b600960009054906101000a900473ffffffffffffffffffffffffffffffffffffffff1681565b83421115610af957836040517f62791302000000000000000000000000000000000000000000000000000000008152600401610af09190611e6f565b60405180910390fd5b60007f6e71edae12b1b97f4d1f60370fef10105fa2faae0126114a169c64845d6126c9888888610b288c6112b6565b89604051602001610b3e969594939291906124be565b6040516020818303038152906040528051906020012090506000610b618261130d565b90506000610b7182878787611327565b90508973ffffffffffffffffffffffffffffffffffffffff168173ffffffffffffffffffffffffffffffffffffffff1614610be557808a6040517f4b800e46000000000000000000000000000000000000000000000000000000008152600401610bdc92919061251f565b60405180910390fd5b610bf08a8a8a610d11565b50505050505050505050565b6000600160008473ffffffffffffffffffffffffffffffffffffffff1673ffffffffffffffffffffffffffffffffffffffff16815260200190815260200160002060008373ffffffffffffffffffffffffffffffffffffffff1673ffffffffffffffffffffffffffffffffffffffff16815260200190815260200160002054905092915050565b610c8b611047565b600073ffffffffffffffffffffffffffffffffffffffff168173ffffffffffffffffffffffffffffffffffffffff1603610cfd5760006040517f1e4fbdf7000000000000000000000000000000000000000000000000000000008152600401610cf4919061216d565b60405180910390fd5b610d06816110ce565b50565b600033905090565b610d1e8383836001611357565b505050565b6000610d2f8484610bfc565b90507fffffffffffffffffffffffffffffffffffffffffffffffffffffffffffffffff8114610db15781811015610da1578281836040517ffb8f41b2000000000000000000000000000000000000000000000000000000008152600401610d9893929190612548565b60405180910390fd5b610db084848484036000611357565b5b50505050565b600073ffffffffffffffffffffffffffffffffffffffff168373ffffffffffffffffffffffffffffffffffffffff1603610e295760006040517f96c6fd1e000000000000000000000000000000000000000000000000000000008152600401610e20919061216d565b60405180910390fd5b600073ffffffffffffffffffffffffffffffffffffffff168273ffffffffffffffffffffffffffffffffffffffff1603610e9b5760006040517fec442f05000000000000000000000000000000000000000000000000000000008152600401610e92919061216d565b60405180910390fd5b610ea683838361152e565b505050565b60007f000000000000000000000000000000000000000000000000000000000000000073ffffffffffffffffffffffffffffffffffffffff163073ffffffffffffffffffffffffffffffffffffffff16148015610f2757507f000000000000000000000000000000000000000000000000000000000000000046145b15610f54577f00000000000000000000000000000000000000000000000000000000000000009050610f5f565b610f5c61153e565b90505b90565b610f6a6115d4565b6000600560006101000a81548160ff0219169083151502179055507f5db9ee0a495bf2e6ff9c91a7834c1ba4fdd244a5e8aa4e537bd38aeae4b073aa610fae610d09565b604051610fbb919061216d565b60405180910390a1565b600073ffffffffffffffffffffffffffffffffffffffff168273ffffffffffffffffffffffffffffffffffffffff16036110375760006040517fec442f0500000000000000000000000000000000000000000000000000000000815260040161102e919061216d565b60405180910390fd5b6110436000838361152e565b5050565b61104f610d09565b73ffffffffffffffffffffffffffffffffffffffff1661106d6109af565b73ffffffffffffffffffffffffffffffffffffffff16146110cc57611090610d09565b6040517f118cdaa70000000000000000000000000000000000000000000000000000000081526004016110c3919061216d565b60405180910390fd5b565b6000600560019054906101000a900473ffffffffffffffffffffffffffffffffffffffff16905081600560016101000a81548173ffffffffffffffffffffffffffffffffffffffff021916908373ffffffffffffffffffffffffffffffffffffffff1602179055508173ffffffffffffffffffffffffffffffffffffffff168173ffffffffffffffffffffffffffffffffffffffff167f8be0079c531659141344cd1fd0a4f28419497f9722a3daafe3b4186f6b6457e060405160405180910390a35050565b6000600860008373ffffffffffffffffffffffffffffffffffffffff1673ffffffffffffffffffffffffffffffffffffffff168152602001908152602001600020549050919050565b6111e5611614565b6001600560006101000a81548160ff0219169083151502179055507f62e78cea01bee320cd4e420270b5ea74000d11b0c9f74754ebdbfc544b05a258611229610d09565b604051611236919061216d565b60405180910390a1565b606061127660067f000000000000000000000000000000000000000000000000000000000000000061165590919063ffffffff16565b905090565b60606112b160077f000000000000000000000000000000000000000000000000000000000000000061165590919063ffffffff16565b905090565b6000600860008373ffffffffffffffffffffffffffffffffffffffff1673ffffffffffffffffffffffffffffffffffffffff1681526020019081526020016000206000815480929190600101919050559050919050565b600061132061131a610eab565b83611705565b9050919050565b60008060008061133988888888611746565b925092509250611349828261183a565b829350505050949350505050565b600073ffffffffffffffffffffffffffffffffffffffff168473ffffffffffffffffffffffffffffffffffffffff16036113c95760006040517fe602df050000000000000000000000000000000000000000000000000000000081526004016113c0919061216d565b60405180910390fd5b600073ffffffffffffffffffffffffffffffffffffffff168373ffffffffffffffffffffffffffffffffffffffff160361143b5760006040517f94280d62000000000000000000000000000000000000000000000000000000008152600401611432919061216d565b60405180910390fd5b81600160008673ffffffffffffffffffffffffffffffffffffffff1673ffffffffffffffffffffffffffffffffffffffff16815260200190815260200160002060008573ffffffffffffffffffffffffffffffffffffffff1673ffffffffffffffffffffffffffffffffffffffff168152602001908152602001600020819055508015611528578273ffffffffffffffffffffffffffffffffffffffff168473ffffffffffffffffffffffffffffffffffffffff167f8c5be1e5ebec7d5bd14f71427d1e84f3dd0314c0f7b2291e5b200ac8c7c3b9258460405161151f9190611e6f565b60405180910390a35b50505050565b61153983838361199e565b505050565b60007f8b73c3c69bb8fe3d512ecc4cf759cc79239f7b179b0ffacaa9a75d522b39400f7f00000000000000000000000000000000000000000000000000000000000000007f000000000000000000000000000000000000000000000000000000000000000046306040516020016115b995949392919061257f565b60405160208183030381529060405280519060200120905090565b6115dc61079e565b611612576040517f8dfc202b00000000000000000000000000000000000000000000000000000000815260040160405180910390fd5b565b61161c61079e565b15611653576040517fd93c066500000000000000000000000000000000000000000000000000000000815260040160405180910390fd5b565b606060ff60001b83146116725761166b836119b6565b90506116ff565b81805461167e906122f1565b80601f01602080910402602001604051908101604052809291908181526020018280546116aa906122f1565b80156116f75780601f106116cc576101008083540402835291602001916116f7565b820191906000526020600020905b8154815290600101906020018083116116da57829003601f168201915b505050505090505b92915050565b60006040517f190100000000000000000000000000000000000000000000000000000000000081528360028201528260228201526042812091505092915050565b60008060007f7fffffffffffffffffffffffffffffff5d576e7357a4501ddfe92f46681b20a08460001c1115611786576000600385925092509250611830565b6000600188888888604051600081526020016040526040516117ab94939291906125d2565b6020604051602081039080840390855afa1580156117cd573d6000803e3d6000fd5b505050602060405103519050600073ffffffffffffffffffffffffffffffffffffffff168173ffffffffffffffffffffffffffffffffffffffff160361182157600060016000801b93509350935050611830565b8060008060001b935093509350505b9450945094915050565b6000600381111561184e5761184d612617565b5b82600381111561186157611860612617565b5b031561199a576001600381111561187b5761187a612617565b5b82600381111561188e5761188d612617565b5b036118c5576040517ff645eedf00000000000000000000000000000000000000000000000000000000815260040160405180910390fd5b600260038111156118d9576118d8612617565b5b8260038111156118ec576118eb612617565b5b03611931578060001c6040517ffce698f70000000000000000000000000000000000000000000000000000000081526004016119289190611e6f565b60405180910390fd5b60038081111561194457611943612617565b5b82600381111561195757611956612617565b5b0361199957806040517fd78bce0c0000000000000000000000000000000000000000000000000000000081526004016119909190611f2d565b60405180910390fd5b5b5050565b6119a6611614565b6119b1838383611a2a565b505050565b606060006119c383611c4f565b90506000602067ffffffffffffffff8111156119e2576119e161248f565b5b6040519080825280601f01601f191660200182016040528015611a145781602001600182028036833780820191505090505b5090508181528360208201528092505050919050565b600073ffffffffffffffffffffffffffffffffffffffff168373ffffffffffffffffffffffffffffffffffffffff1603611a7c578060026000828254611a709190612675565b92505081905550611b4f565b60008060008573ffffffffffffffffffffffffffffffffffffffff1673ffffffffffffffffffffffffffffffffffffffff16815260200190815260200160002054905081811015611b08578381836040517fe450d38c000000000000000000000000000000000000000000000000000000008152600401611aff93929190612548565b60405180910390fd5b8181036000808673ffffffffffffffffffffffffffffffffffffffff1673ffffffffffffffffffffffffffffffffffffffff16815260200190815260200160002081905550505b600073ffffffffffffffffffffffffffffffffffffffff168273ffffffffffffffffffffffffffffffffffffffff1603611b985780600260008282540392505081905550611be5565b806000808473ffffffffffffffffffffffffffffffffffffffff1673ffffffffffffffffffffffffffffffffffffffff168152602001908152602001600020600082825401925050819055505b8173ffffffffffffffffffffffffffffffffffffffff168373ffffffffffffffffffffffffffffffffffffffff167fddf252ad1be2c89b69c2b068fc378daa952ba7f163c4a11628f55a4df523b3ef83604051611c429190611e6f565b60405180910390a3505050565b60008060ff8360001c169050601f811115611c96576040517fb3512b0c00000000000000000000000000000000000000000000000000000000815260040160405180910390fd5b80915050919050565b600081519050919050565b600082825260208201905092915050565b60005b83811015611cd9578082015181840152602081019050611cbe565b60008484015250505050565b6000601f19601f8301169050919050565b6000611d0182611c9f565b611d0b8185611caa565b9350611d1b818560208601611cbb565b611d2481611ce5565b840191505092915050565b60006020820190508181036000830152611d498184611cf6565b905092915050565b600080fd5b600073ffffffffffffffffffffffffffffffffffffffff82169050919050565b6000611d8182611d56565b9050919050565b611d9181611d76565b8114611d9c57600080fd5b50565b600081359050611dae81611d88565b92915050565b6000819050919050565b611dc781611db4565b8114611dd257600080fd5b50565b600081359050611de481611dbe565b92915050565b60008060408385031215611e0157611e00611d51565b5b6000611e0f85828601611d9f565b9250506020611e2085828601611dd5565b9150509250929050565b60008115159050919050565b611e3f81611e2a565b82525050565b6000602082019050611e5a6000830184611e36565b92915050565b611e6981611db4565b82525050565b6000602082019050611e846000830184611e60565b92915050565b600080600060608486031215611ea357611ea2611d51565b5b6000611eb186828701611d9f565b9350506020611ec286828701611d9f565b9250506040611ed386828701611dd5565b9150509250925092565b600060ff82169050919050565b611ef381611edd565b82525050565b6000602082019050611f0e6000830184611eea565b92915050565b6000819050919050565b611f2781611f14565b82525050565b6000602082019050611f426000830184611f1e565b92915050565b600060208284031215611f5e57611f5d611d51565b5b6000611f6c84828501611d9f565b91505092915050565b611f7e81611e2a565b8114611f8957600080fd5b50565b600081359050611f9b81611f75565b92915050565b60008060408385031215611fb857611fb7611d51565b5b6000611fc685828601611d9f565b9250506020611fd785828601611f8c565b9150509250929050565b60007fff0000000000000000000000000000000000000000000000000000000000000082169050919050565b61201681611fe1565b82525050565b61202581611d76565b82525050565b600081519050919050565b600082825260208201905092915050565b6000819050602082019050919050565b61206081611db4565b82525050565b60006120728383612057565b60208301905092915050565b6000602082019050919050565b60006120968261202b565b6120a08185612036565b93506120ab83612047565b8060005b838110156120dc5781516120c38882612066565b97506120ce8361207e565b9250506001810190506120af565b5085935050505092915050565b600060e0820190506120fe600083018a61200d565b81810360208301526121108189611cf6565b905081810360408301526121248188611cf6565b90506121336060830187611e60565b612140608083018661201c565b61214d60a0830185611f1e565b81810360c083015261215f818461208b565b905098975050505050505050565b6000602082019050612182600083018461201c565b92915050565b61219181611edd565b811461219c57600080fd5b50565b6000813590506121ae81612188565b92915050565b6121bd81611f14565b81146121c857600080fd5b50565b6000813590506121da816121b4565b92915050565b600080600080600080600060e0888a0312156121ff576121fe611d51565b5b600061220d8a828b01611d9f565b975050602061221e8a828b01611d9f565b965050604061222f8a828b01611dd5565b95505060606122408a828b01611dd5565b94505060806122518a828b0161219f565b93505060a06122628a828b016121cb565b92505060c06122738a828b016121cb565b91505092959891949750929550565b6000806040838503121561229957612298611d51565b5b60006122a785828601611d9f565b92505060206122b885828601611d9f565b9150509250929050565b7f4e487b7100000000000000000000000000000000000000000000000000000000600052602260045260246000fd5b6000600282049050600182168061230957607f821691505b60208210810361231c5761231b6122c2565b5b50919050565b7f4e6f7420617574686f72697a656420746f20756e706175736500000000000000600082015250565b6000612358601983611caa565b915061236382612322565b602082019050919050565b600060208201905081810360008301526123878161234b565b9050919050565b7f4e6f7420617574686f72697a656420746f206d696e7400000000000000000000600082015250565b60006123c4601683611caa565b91506123cf8261238e565b602082019050919050565b600060208201905081810360008301526123f3816123b7565b9050919050565b600060408201905061240f600083018561201c565b61241c6020830184611e36565b9392505050565b7f4e6f7420617574686f72697a656420746f207061757365000000000000000000600082015250565b6000612459601783611caa565b915061246482612423565b602082019050919050565b600060208201905081810360008301526124888161244c565b9050919050565b7f4e487b7100000000000000000000000000000000000000000000000000000000600052604160045260246000fd5b600060c0820190506124d36000830189611f1e565b6124e0602083018861201c565b6124ed604083018761201c565b6124fa6060830186611e60565b6125076080830185611e60565b61251460a0830184611e60565b979650505050505050565b6000604082019050612534600083018561201c565b612541602083018461201c565b9392505050565b600060608201905061255d600083018661201c565b61256a6020830185611e60565b6125776040830184611e60565b949350505050565b600060a0820190506125946000830188611f1e565b6125a16020830187611f1e565b6125ae6040830186611f1e565b6125bb6060830185611e60565b6125c8608083018461201c565b9695505050505050565b60006080820190506125e76000830187611f1e565b6125f46020830186611eea565b6126016040830185611f1e565b61260e6060830184611f1e565b95945050505050565b7f4e487b7100000000000000000000000000000000000000000000000000000000600052602160045260246000fd5b7f4e487b7100000000000000000000000000000000000000000000000000000000600052601160045260246000fd5b600061268082611db4565b915061268b83611db4565b92508282019050808211156126a3576126a2612646565b5b9291505056fea2646970667358221220b7568e92981a272ded955587097b7e3f069339c777aab9c5af371be7dcbdaee564736f6c63430008180033",
  "linkReferences": {},
  "deployedLinkReferences": {}
}